:020000040802F0
:10000000082F0020A9760208E96D0208EB6D0208AE
:10001000ED6D0208EF6D0208F16D020800000000AE
:10002000000000000000000000000000F36D020866
:10003000F56D020800000000F76D0208F96D020876
:10004000C9760208CD760208D1760208D576020874
:10005000D9760208DD760208E1760208E576020824
:10006000E9760208ED760208F1760208F5760208D4
:10007000F9760208FD760208017702080577020882
:10008000097702080D770208117702081577020830
:10009000197702081D7702082177020825770208E0
:1000A000456E0208297702082D7702083177020889
:1000B000596E020835770208656E02083977020822
:1000C0003D77020841770208457702084977020820
:1000D0004D770208716E0208517702087B6E0208A4
:1000E00055770208597702085D77020861770208A0
:1000F00065770208697702086D7702087177020850
:100100007577020879770208876E02087D77020802
:100110008177020885770208897702088D770208BF
:10012000A36E020891770208AD6E02089577020867
:10013000997702089D770208A1770208A57702083F
:10014000A9770208AD770208B1770208B5770208EF
:10015000B9770208BD770208C1770208C57702089F
:10016000C9770208CD770208D1770208D57702084F
:10017000D9770208DD770208E17702080000000065
:10018000E5770208E9770208BFF34F8F85490A68CF
:1001900012F4E062844802430A60BFF34F8F00BF4D
:1001A000FDE7F0B50025002600270024102C22D200
:1001B0000123A3401D0015EA01031E00AE4218D121
:1001C000D0F800C05FF0030E2300DBB25B001EFA24
:1001D00003FE3CEA0E0C96465FFA8EFE1EF0030EFE
:1001E0002300DBB25B001EFA03FE5EEA0C0C6746DE
:1001F0000760641CDAE7F0BD10B52DED028B04003A
:10020000200000B200EE100AB8EEC00ADFED5C0A72
:1002100080EE800AFFEE000A30EE200ADFED590A78
:1002200080EE808A9FED580AC8EE008AB0EE680A18
:1002300001F09EFEDFED550A80EE200ADFED540A44
:1002400030EE200AF7EE000A80EE800ADFED510A58
:1002500030EE200ABDEEC00A10EE100A00B2BDEC6E
:10026000028B10BD10B52DED028B0400200000B2F2
:1002700000EE100AB8EEC00ADFED410A80EE800AF7
:10028000FFEE000A30EE200ADFED430A80EE808A9E
:100290009FED420AC8EE008AB0EE680A01F068FEDF
:1002A000DFED3F0A80EE200ADFED390A30EE200A4A
:1002B000F7EE000A80EE800ADFED360A30EE200A03
:1002C000BDEEC00A10EE100A00B2BDEC028B10BDEC
:1002D000F0B4364A0B009BB240F2F514A34203DAA5
:1002E0000B009BB2002B01D10523190003009BB228
:1002F000652B03DA03009BB2002B01D10123180008
:100300000B009BB24FF47A7404FB03F40523B4FB97
:10031000F3F542F211739D4202D342F210731D00B5
:10032000631E1668F3620A231668736313689D637D
:1003300013685B6953F00103166873611C4E0A234E
:10034000B5FBF3F35B1E33801A4B3788323FD3F88B
:1003500000C0CCF8347036881F68FE621E6876696B
:1003600056F001061F687E6142F210760700BFB2A8
:1003700096FBF7F6761E104F3E60F0BC704700000B
:100380000000804500401C480050434700006B457A
:100390000FCF5B3B339388C30038474700401C4670
:1003A00000B056450CED00E00400FA058C0B00206F
:1003B0000C010020F40C00202C0800402DE9F84F1F
:1003C0002DED028B82B001F033FE62B601F09CF895
:1003D00001F0DCFC01F0BCFC01F084FC01F054FAFB
:1003E00001F0E0FB01F0DCF901F0F0F801F038F980
:1003F00001F0B4F901F0F0F901F0CCFA01F08AFB58
:1004000001F042FB01F00CFC01F088FCDFF8940CD9
:10041000DFF8941C0880DFF8940C0090012106207E
:1004200001F075FE0021022001F071FE0122DFF8CB
:10043000801CDFF8800C01F0FFFEDFF87C0C02F07E
:100440008EFBDFF8780C02F0D1FBDFF8744C002152
:10045000200002F036FC0421200002F0B9FC00214B
:10046000DFF8600C02F02DFCDFF85C8C00214046C8
:1004700002F02DFE4022DFF8541CDFF8540C03F08C
:1004800063FB002801D001F071FD3022DFF8441C2D
:10049000DFF8440C03F058FB002801D001F066FDA2
:1004A0000021DFF8380C03F0FBFDDFF8340C02F01C
:1004B0009DFB32210520FFF70BFFDFF8284C206859
:1004C00030F400702060DFF8209C002089F80300E1
:1004D000DFF8185C288850F400702880206830F419
:1004E0008060206040F2F517DFF8046C3088B84275
:1004F00007DB4FF40061DFF8FC0B03F07CFF00200A
:10050000308003F0A1FFDFF8F00B0068DFF8EC1B90
:10051000884201D1FFF738FEDFF8E46B307800281D
:1005200003D0022852D02BD350E0206830F48070E2
:100530002060288850F0020028800020DFF8C41BCB
:1005400008600821404602F049FEDFF8BCAB0122FA
:100550004FF480715046FFF724FE00224FF4807163
:10056000504603F03BFF0121042001F0D0FD04F0D0
:10057000A1FBDFF8981B08603078401C307025E044
:1005800004F098FBDFF884ABDAF80010401A40F270
:10059000DD51884202D22888800716D40021042029
:1005A00001F0B5FD04F086FBCAF800003078401C6D
:1005B00030702888800704D4206850F48070206050
:1005C00003E0206850F480602060FFE72068C0F3FB
:1005D000002000280FD0288880B2C00B80B20028ED
:1005E00005D12888C0B2000910F0010000E0012008
:1005F00090F0010000E00020C0B2002800F0A182CD
:10060000002001F092FDDFF8086B3078002831D02F
:10061000012855D0022860D0032800F093800428D8
:1006200000F09980052800F0BA80062800F0D680F6
:10063000072800F00881082800F04A81092800F006
:1006400054810A2800F073810B2800F086810C2861
:1006500000F0B6810D2800F0CD810E2800F0E48175
:100660000F2800F02082102800F06282632800F03A
:10067000688266E2DFF89C0A0068400707D501211E
:10068000052001F044FD3078401C307017E004F084
:1006900011FBDFF8781A0968401A41F28931884263
:1006A0000DD3206830F480702060206850F48060A2
:1006B0002060DFF8640A018851F00201018040E205
:1006C0000121032001F023FD04F0F4FADFF83C1AC5
:1006D00008603078401C307033E2DFF8400A008850
:1006E000B0F5807F11DB04F0E5FADFF8201A096825
:1006F000401A40F2D171884207D30021032001F053
:1007000006FD3078401C30701BE004F0D3FADFF8AF
:10071000FC190968401A41F28931884211D300213D
:10072000032001F0F4FCDFF8F009018851F0040126
:100730000180206830F480702060206850F4806070
:100740002060FEE104F0B6FADFF8C01908603078E6
:10075000401C3070F5E1DFF8C8094FF47A71018070
:100760000088DFF8A0190860DFF89C7900224FF4B8
:100770008071380003F032FE02224FF4807138009D
:10078000FFF70FFD0821404602F0A1FC04F092FAA9
:10079000DFF8781908603078401C3070D1E104F03F
:1007A00089FADFF868793968401A7E2815D304F091
:1007B00081FA3860DFF86809018811F57A710180E3
:1007C000018842F6F922914204DA0088DFF83419F0
:1007D000086002E03078401C3070B2E1DFF83C097C
:1007E000008840F20131884210DB04F063FADFF840
:1007F0001C793968401A40F2D171884206D304F05E
:1008000059FA38603078401C30701BE004F052FA1E
:10081000DFF8F8180968401A41F28931884211D38B
:100820000021032001F073FCDFF8EC08018851F08F
:1008300008010180206830F480702060206850F446
:10084000806020607DE1DFF8A80C007800283ED0B1
:10085000DFF8A00C0078052813DBDFF89C0C01887A
:1008600041F28832914203DA0188491C01802EE06E
:1008700029884FF6DF70014029803078401C3070A5
:1008800025E004F017FADFF884180968401ADFF849
:100890006C1C88420CD3288850F0200028802068E7
:1008A00030F480702060206850F48060206048E15F
:1008B000DFF8441C0888002802D00888401E088001
:1008C0000888002803D1288850F02000288038E1CB
:1008D0000121022001F01BFC04F0ECF9DFF82C18D8
:1008E00008603078401C30702BE1DFF82808006881
:1008F000000603D53078401C307017E004F0DAF9B8
:10090000DFF808180968401A41F2893188420DD38E
:10091000206830F480702060DFF8FC07018851F017
:1009200010010180206850F48060206009E10021FE
:10093000404602F0CCFBDFF8800C4FF48051018080
:100940000088DFF8BC1B086004F0B4F9DFF8BC17BE
:1009500008603078401C3070F3E0DFF8A80B0088A6
:1009600040F20131884212DB04F0A4F9DFF89C1751
:100970000968401A40F2D171884208D329884FF69D
:100980007F70014029803078401C307017E004F0FF
:1009900091F9DFF878170968401A41F289318842E5
:1009A0000DD3DFF87407018851F020010180206821
:1009B00030F480702060206850F480602060C0E0D7
:1009C000DFF8F80B008840F6017188420EDBDFF893
:1009D0004807018851F080010180206830F4807060
:1009E0002060206850F48060206002E03078401C75
:1009F0003070A6E0DFF8C80B008840F6017188422D
:100A00000EDBDFF81407018851F480710180206843
:100A100030F480702060206850F48060206002E034
:100A20003078401C30708CE0DFF8987BFA203880FA
:100A3000388800EE100AB8EE400A10EE100A04F0F2
:100A40003FF95FF03332DFF8803B04F05DF904F0EA
:100A500031FA08EE100ABCEEC80A10EE100A38800F
:100A60003B8800220021DFF8740603F053FB0021CD
:100A7000062001F04CFB05210120FFF729FCDFF8DF
:100A8000DC0B00686438DFF8CC1C0860DFF8C80CA9
:100A900002F0ACF804F00EF9DFF870160860307858
:100AA000401C30704DE004F005F9DFF8601609686D
:100AB000401AB8423BD3DFF8A00C02F0E4F8012161
:100AC000062001F024FB002089F803000021052006
:100AD00001F01DFBDFF8E00A002101800088DFF84B
:100AE000201A08600021022001F011FB0020DFF82D
:100AF000301608800020DFF80C16086008214046F8
:100B000002F06CFBDFF8007601224FF480713800B0
:100B1000FFF747FB00224FF48071380003F05EFCC2
:100B20000121042001F0F3FA3078401C307008E015
:100B3000206850F400702060206830F480702060DD
:100B4000FFE72068C0F34020002810D02888C0F3B9
:100B5000400080B2002806D12888C00603D4288827
:100B600080B2C00B00E0012090F0010000E0002006
:100B7000C0B2002800F0A8812068400707D50020F7
:100B800001F0D3FA0121022001F0C1FA03E00021B3
:100B9000022001F0BCFADFF87C050068400704D5AC
:100BA0000121052001F0B3FA03E00021052001F046
:100BB000AEFA2068C0F38010002808D1288800050C
:100BC00005D4288880B2800A10F0010000E00120DE
:100BD000C0B2002804D047F23050DFF8C01B0880B4
:100BE000DFF8B81B0888002802D12068000504D46B
:100BF000206850F00400206003E0206830F004001A
:100C000020600888002830D02068C0F380100028B9
:100C100005D12888000502D40888002807D0288834
:100C200080B2800A10F0010090F0010000E0002086
:100C3000C0B2002808D00121032001F068FA206822
:100C400050F00100206018E02888400515D50021EB
:100C5000032001F05CFA206840084000206042F266
:100C60001070DFF89C18086007E02068400840001A
:100C700020600021032001F04AFA206840077DD55A
:100C8000DFF8507B3878002803D0022848D028D3DA
:100C9000A1E0DFF88C044FF47A7101800088DFF85E
:100CA00064140860DFF8606400224FF48071300043
:100CB00003F094FB02224FF480713000FFF771FAC9
:100CC0000821404602F003FA03F0F4FFDFF83C1479
:100CD00008600020DFF8AC1B08703878401C3870C2
:100CE00079E003F0E7FFDFF824643168401A7E28DA
:100CF00015D303F0DFFF3060DFF82404018811F51D
:100D00007A710180018842F21172914204DA0088FE
:100D1000DFF8F013086002E03878401C38705AE0C1
:100D2000206810F00100DFF8C8070078002824D000
:100D3000DFF8C0070078052810DBDFF8BC07018862
:100D400041F28832914203DA0188491C018014E0A3
:100D500029884FF6DF70014029800EE0DFF89817F0
:100D60000888002809D00888401E088008880028C4
:100D700003D1288850F0200028802CE0DFF8047B85
:100D80003878002802D0012825D024E00020DFF8A0
:100D9000901308800020DFF86C130860082140469B
:100DA00002F01CFAD84E01224FF480713000FFF798
:100DB000F8F900224FF48071300003F00FFB01219D
:100DC000042001F0A4F90020DFF8081A0870387830
:100DD000401C3870FFE7DFF8AC0C0078C0F340002F
:100DE000C0B2002805D0288880B2000A10F00100A7
:100DF00000E00020C0B2002808D0DFF8900B018886
:100E000064204143DFF8F80601600CE0206800052B
:100E100005D442F21070DFF8E816086003E0002005
:100E2000DFF8DC160860DFF89407018840F6A1724D
:100E3000914203DA0088B0F57A7F08DA288850F00A
:100E400040002880206830F0400020604FE0298872
:100E50004FF6BF7001402980DFF8341B0888102846
:100E600004DA288850F48060288007E00888142875
:100E700004DB2A884FF6FF3002402A8008882328A6
:100E800004DB288850F40060288007E008881528D3
:100E900004DA2A884FF2FF7002402A800888162858
:100EA00007DB2068000504D4206850F04000206073
:100EB0001DE00888142802DB2068000517D520688B
:100EC00030F04000206012E02068C0050FD40121FE
:100ED000042001F01CF90021052001F018F900217F
:100EE000022001F014F90021032001F010F9DFF8CD
:100EF000141C087800284BD000200870DFF8086C1C
:100F00003089DFF8B8160880F088DFF8B41608805A
:100F10003089022190FBF1F000B2FFF76DF9DFF8A4
:100F2000701A0880F088022190FBF1F000B2FFF700
:100F300099F9DFF8D81B0880DFF8D40B008803F09C
:100F4000EDFF0022DFF8443C03F0DEFE0022DFF874
:100F5000403C03F0F1FF03F0ADFF08EE900A18EEFD
:100F6000900A03F0ADFE0022DFF8283C04F008F9F7
:100F70000022DFF8243C03F0DFFF03F09BFF00EECC
:100F8000100ABDEEC00A10EE100ADFF8101C08802F
:100F9000DFF85C15087800281FD00020087001F0E9
:100FA00061F8DFF8FC1B086800280AD00868401EBA
:100FB00008600868002804D0206830F400602060D1
:100FC00003E0206850F400602060DFF8D017088844
:100FD000002802D00888401E08804F4E2068800AF2
:100FE000318860F3000131804A4F3868C0F3C00097
:100FF00029884904490C51EAC031298038688009A0
:1010000010F0010090F00100298860F3410129806F
:101010003868000A10F0010090F00100298860F3A0
:1010200004112980386810F0010090F0010029882F
:1010300060F300012980DFF8E40B008851280FDA03
:10104000DFF8900C0088DFF8901C0988884207D3ED
:10105000DFF8880C0088DFF8881C0988884207D2EE
:10106000206830F400702060288850F48050288078
:10107000DFF8A40C0088DFF80CAA9AF80000C0F38F
:101080000010C0B200284DD02888C0054AD420687E
:10109000400547D42068000A10F0010090F00100DC
:1010A00041E000BFF0FF0108A40E0020F0FF0F0890
:1010B000F90E00203C0D0020440B0020640C0020A1
:1010C0008C0B0020F40C0020D40B0020140900200D
:1010D000B40A002094090020FC0A0020480E0020D9
:1010E000AC0C0020900E00208C0E0020D20E0020B0
:1010F000A60E002000000240C000002055AA5AA5FC
:10110000E80E00203C040040000802407C0E002055
:10111000E90E0020940E0020D40E0020B00E002016
:10112000A80E00200020C0B200282CD09AF80000A1
:1011300010F0EF008AF8000029884FF6DF700140B8
:10114000298029884FF67F70014029802888400433
:10115000400C288031884FF6FF50014031802068D4
:1011600050F40070206029884EF6FF7001402980FD
:101170000121012000F0CBFF0A2004F029F9002111
:10118000012000F0C4FF2068C0F34020002828D0D0
:101190002068400525D42888400622D42888800568
:1011A0001FD42888C0041CD42888800419D4288817
:1011B000C00716D42888800713D42888C00610D406
:1011C000288880060DD4288800040AD42888400581
:1011D00007D4288880B2C00A10F0010090F0010006
:1011E00000E00020C0B2298860F30821298020682F
:1011F000C0F34020002807D02888C00504D59AF8FD
:10120000000010F0010000E00020C0B2002833D040
:101210002068000634D43868C0F34010002808D095
:101220009AF80000C0B2800910F0010090F00100AF
:1012300000E00020C0B2002804D0288850F480408C
:1012400028801DE09AF80000C0F38010C0B200288A
:1012500004D03868000910F0010000E00020C0B29E
:10126000002804D0288850F00800288008E0206872
:1012700050F08000206003E0206830F080002060A3
:101280003868C0F3401000280AD09AF800004006E1
:1012900006D49AF8000010F0010090F0010000E080
:1012A0000120C0B2002804D029884BF6FF7001400D
:1012B00029803868C0F3001000280AD09AF800008E
:1012C000000606D49AF8000010F0010090F001002A
:1012D00000E00120C0B2002804D029884FF6F77042
:1012E000014029803868C0F3401000280DD09AF8DA
:1012F0000000400609D43868C00606D49AF80000F9
:10130000C0B2C00990F0010000E00020C0B2002887
:1013100003D0288850F0040028809AF8000010F0CC
:101320000100002807D02888C00504D52068C0091E
:1013300010F0010000E00020C0B2002800F0C780DB
:101340000021062000F0E3FEDFF88CBB9BF80000D4
:10135000002803D0012860D0FFF7C4B89AF8000035
:10136000C0F38010C0B2002809D13868800606D5C5
:101370009AF80000000602D43868C00621D49AF812
:101380000000C0F38010C0B2002804D03868000903
:1013900010F0010000E00020C0B2002811D19AF83E
:1013A0000000C0B2C009C0B2002806D038684009A9
:1013B00010F0010090F0010000E00120C0B2002810
:1013C00006D12068400910F0010090F0010000E013
:1013D0000020C0B200281ED0386880070AD43868C0
:1013E000400810F0010090F00100318860F34921BD
:1013F000318010E0206850F020002060974800689D
:101400006438D4490860D44801F0F0FB9BF8000030
:10141000401C8BF80000FFF765B89AF80000C0F395
:101420008010C0B2002802D13868800638D59AF8FA
:101430000000C0B2C009C0B2002806D13868000957
:1014400010F0010090F0010000E00020C0B2002880
:1014500026D19AF80000C0F38010C0B2002806D050
:101460003868000910F0010090F0010000E0002051
:10147000C0B2002814D19AF80000C0B2C009C0B2AE
:10148000002806D03868400910F0010090F00100F3
:1014900000E00020C0B2002802D13868800704D4E0
:1014A0002068400910F0010000E00020C0B20028D0
:1014B0000BD0206830F020002060A74801F0E3FB4B
:1014C0009BF80000401E8BF80000FFF70BB80121CD
:1014D000062000F01CFEA04801F0D5FB206830F08B
:1014E000200020600020DFF8F0190870FEF7FABF36
:1014F000EC0E0020EE0E0020D80E0020E193040038
:1015000034040040AE0E002080B592B0302100229D
:1015100006A803F071FF1421002201A803F06CFF5C
:1015200000200090DFF8B409016851F0805101609B
:10153000006810F080500090009800200090DFF8C4
:10154000A009016851F480410160006810F48040F6
:10155000009000980A2006900120099010200A901F
:1015600001200B9002200C9000200D9008200E907E
:10157000A8200F90022010900720119006A803F0D9
:101580006FFF002801D000F0F1FC0F200190022035
:101590000290002003904FF4A05004904FF480502C
:1015A0000590052101A804F053F9002801D000F0AE
:1015B000DDFC13B000BD0000AA0E0020BA0E002012
:1015C000BC0E0020CC0E00203333F33F1FB510219A
:1015D0000022684603F010FFDFF80849DFF8080929
:1015E00020605FF4803060600020A06001202061F6
:1015F00000202076002084F820005FF08050E06218
:101600005FF07060A0620020E0600220E0610120D5
:1016100084F8300001206061200002F063FA0028A5
:1016200001D000F0A3FC00200090012001900420D4
:1016300002906946200002F04BFB002801D000F028
:1016400095FC07200090022001906946200002F0DE
:101650003FFB002801D000F089FC1FBD2C08004092
:101660001FB510210022684603F0C6FEDFF87C4853
:10167000DFF87C0820605FF4803060600020A060AC
:101680000120206100202076002084F820005FF0F7
:101690008050E0625FF06060A0620020E0600620A1
:1016A000E061012084F8300000206061200002F039
:1016B00019FA002801D000F059FC01200090012007
:1016C0000190042002906946200002F001FB0028EE
:1016D00001D000F04BFC02200090022001906946EE
:1016E000200002F0F5FA002801D000F03FFC0320B2
:1016F0000090032001906946200002F0E9FA0028DA
:1017000001D000F033FC05200090042001906946D0
:10171000200002F0DDFA002801D000F027FC0620AE
:101720000090052001906946200002F0D1FA0028BF
:1017300001D000F01BFC0820009006200190002042
:1017400002906946200002F0C3FA002801D000F0A0
:101750000DFC1FBD240800401C0C00201CB50821F6
:101760000022684603F048FEDFF88847DFF8880764
:101770002060200002F07EFC002801D000F0F6FB83
:10178000002000900020019000226946200002F015
:10179000D7FC002801D000F0E9FB13BDD00E0020DB
:1017A00080B5DFF85807DFF8581701600021416065
:1017B0007F218160FF21C160002101610021416121
:1017C0000021816104F00CF9002801D000F0CEFB6B
:1017D00001BD0000EA0E002018B58BB010210022D8
:1017E00002A803F009FE1421002206A803F004FE5B
:1017F00008210022684603F0FFFDDFF80847DFF804
:1018000008072060002060600020A0604FF6FF7095
:10181000E06000202061002060610020A0612000C5
:1018200001F066F9002801D000F0A0FB4FF4005051
:10183000029000200390002004900020059002A94F
:10184000200001F0A5FE002801D000F08FFB05204C
:1018500006900020079006A9200001F013FF002841
:1018600001D000F083FB0020009000200190694629
:10187000200004F069F9002801D000F077FB0CB0DB
:1018800010BD0000EB0E002010B592B01021002218
:101890000EA803F0B1FD1421002209A803F0ACFD4D
:1018A00008210022684603F0A7FD1C21002202A89F
:1018B00003F0A2FDDFF854465FF080402060532023
:1018C00060600020A060DFF84806E0600020206132
:1018D0000020A061200001F00BF9002801D000F0E9
:1018E00045FB4FF480500E900EA9200001F050FEF1
:1018F000002801D000F03AFB200001F0B1FB0028E5
:1019000001D000F033FB0821200001F0CDFC0028BD
:1019100001D000F02BFB0620099030200A9009A985
:10192000200001F0AFFE002801D000F01FFB502086
:101930000090002001906946200004F005F900287D
:1019400001D000F013FB702002900A2003900020C9
:10195000049000200690002202A9200001F09AFDC8
:10196000002801D000F002FBDFF8A8050390042254
:1019700002A9200001F08EFD002801D000F0F6FA47
:10198000200004F036FB12B010BD0000B80E00209D
:10199000B20E002018B58DB01021002209A803F066
:1019A0002BFD08210022684603F026FD1C210022A1
:1019B00002A803F021FDDFF86045DFF86005206034
:1019C000532060600020A06042F20F70E0600020B1
:1019D00020610020A061200001F08AF8002801D0D9
:1019E00000F0C4FA4FF48050099009A9200001F0DA
:1019F000CFFD002801D000F0B9FA200001F030FB43
:101A0000002801D000F0B2FA402000908020019020
:101A10006946200004F098F8002801D000F0A6FAEA
:101A20006020029000200390002004900020069087
:101A3000002202A9200001F02DFD002801D000F0B5
:101A400095FA042202A9200001F024FD002801D00B
:101A500000F08CFA082202A9200001F01BFD0028EA
:101A600001D000F083FA0C2202A9200001F012FD3F
:101A7000002801D000F07AFA200004F0BAFA0EB083
:101A800010BD0000EF0E002010B586B0102100221E
:101A900002A803F0B1FC08210022684603F0ACFC68
:101AA000DFF87C44DFF87C04206042F2CF00606005
:101AB0000020A06042F20F70E06000202061002052
:101AC000A061200001F014F8002801D000F04EFAC7
:101AD0004FF48050029002A9200001F059FD002827
:101AE00001D000F043FA20200090002001906946C8
:101AF000200004F029F8002801D000F037FA06B0E1
:101B000010BD0000ED0E00205C0E0020B40E002081
:101B1000BE0E002010B586B01021002202A803F0EE
:101B20006BFC08210022684603F066FCDFF8F843EE
:101B3000DFF8F8032060532060600020A060DFF829
:101B4000F003E060002020610020A061200000F090
:101B5000CFFF002801D000F009FA4FF48050029026
:101B600002A9200001F014FD002801D000F0FEF9C8
:101B700010200090802001906946200003F0E4FFCF
:101B8000002801D000F0F2F906B010BD00C8A9404D
:101B90000000B04000407FC000002440B60E00208E
:101BA0009C0E002010B586B01021002202A803F080
:101BB00023FC08210022684603F01EFCDD4CDE48B1
:101BC0002060A72060600020A06042F20F70E060FB
:101BD00000202061002060610020A061200000F052
:101BE00087FF002801D000F0C1F94FF48050029027
:101BF00002A9200001F0CCFC002801D000F0B6F9C9
:101C000020200090802001906946200003F09CFF76
:101C1000002801D000F0AAF906B010BDCA0E0020BD
:101C200010B590B0102100220CA803F0E5FB1421A0
:101C3000002207A803F0E0FB1C210022684603F005
:101C4000DBFBBE4CBE482060A72060600020A06087
:101C50006320E060002020610020A061200000F0EF
:101C600047FF002801D000F081F94FF480500C901C
:101C70000CA9200001F08CFC002801D000F076F9BE
:101C8000200001F0EDF9002801D000F06FF90620E6
:101C900007900020089007A9200001F0F3FC00281D
:101CA00001D000F063F970200090322001900020F4
:101CB00002900020049000226946200001F0EAFB17
:101CC000002801D000F052F9200004F092F910B081
:101CD00010BD00000E010020C80E002010010020E1
:101CE000C60E002080B59748974901605FF4E13146
:101CF0004160002181600021C160002101610C214F
:101D00004161002181610021C16100F02DFA0028AC
:101D100001D000F02BF901BDD60E002080B58B4814
:101D20008B4901605FF4E131416000218160002155
:101D3000C160002101610C2141610021816100210C
:101D4000C16100F011FA002801D000F00FF901BDC7
:101D500080B5002000907F48016851F48001016047
:101D6000006810F4800000900098002200213820C4
:101D700004F0D7FA382004F0E9FA002200213A20D2
:101D800004F0CFFA3A2004F0E1FA01BDF8B586B0CC
:101D900014210022684603F02FFB002005906D48B7
:101DA000016851F010010160016811F01001059106
:101DB000059900210591016851F004010160016855
:101DC00011F004010591059900210591016851F078
:101DD00001010160016811F00101059105990021DF
:101DE0000591016851F002010160016811F00201E2
:101DF0000591059900210591016851F008010160E4
:101E0000006810F0080005900598534C002203214B
:101E1000200002F0E3FA41F23205504E0022290080
:101E2000300002F0DBFA4E4F00224FF4C051380070
:101E300002F0D4FA032000900120019000200290CB
:101E4000002003906946200002F0A8F93820009095
:101E500000200190002002906946200002F09EF9C7
:101E60000095012001900020029000200390694617
:101E7000300002F093F94FF40040009000200190F0
:101E8000002002906946374802F088F940F21D10A0
:101E9000009000200190002002906946324802F034
:101EA0007DF94FF4C0500090012001900020029075
:101EB000002003906946380002F070F94FF400608A
:101EC00000905FF488100190002002906946200085
:101ED00002F064F907B0F0BDF10E00204038024076
:101EE00000700040B40A002000200140FC0A0020DD
:101EF00000210140480E002000740040E80D002041
:101F000000280040440B0020000001408C0B002002
:101F10001FA1070048E80100D40B00200004004086
:101F20001C0C002000080040640C0020000C004045
:101F30003F420F00AC0C002000040140F40C0020D4
:101F4000004001403C0D002000100140800D0020A9
:101F500000480040303802400008024000040240BF
:101F60000000024000100240000C024072B6FEE782
:101F700010EE100AB5EE400A4FF0807C1CEB400FCB
:101F800042D2F1EE10FADFF8A4C0DCEC090A45DD1C
:101F90005FEAD05C2BD0ACF17E0CA0EBCC5000EE15
:101FA000100AB4EE600AF1EE10FA44BFACF1010C75
:101FB00020EE210A00EE90CAF8EEE00A70EE415AD7
:101FC00030EE016A85EE866A66EE066A02EEA63A91
:101FD00043EE263AB0EE650A03EEE60A20EE066A04
:101FE00004EEE06A35EEC60A04EE200A704720EEE1
:101FF000020A10EE100A4FEAD05CACF17E0CA0EBA6
:10200000CC50ACF1170CCAE707D8004244BF6FF0C0
:10201000004000EE100AAFF300807047F6DB6FF06F
:102020000000C00500EE100A70470000C4740208EA
:1020300080B50B48016851F400710160016851F4EA
:1020400080610160016851F480710160032004F037
:1020500062F9002004F098F903F0CEFD002002BDE3
:10206000003C024038B50024092C4FD20120A0408A
:10207000050033480088284211D0324800882842A1
:1020800006D031490A68280080B202430A603BE06A
:102090002D490A68280080B282430A6034E02B4848
:1020A00030F814102A4850F8240002F08CF9C0B21D
:1020B000284931F8141091EA000F11D1264951F83E
:1020C0002400002805D051F82400401E41F82400C7
:1020D0001AE01D490A68280080B202430A6013E032
:1020E0001D4850F824101D4A52F82420914205D270
:1020F00050F82410491C40F8241005E012490A68E1
:10210000280080B282430A60641CADE731BD38B557
:1021100004000D002A00D2B2114830F81410114802
:1021200050F8240002F05AF931BD10B504000C48F3
:1021300030F814100B4850F8240002F05CF910BD80
:10214000DA0E0020DC0E0020940E002060760208DB
:10215000C400002074760208C40D002068750208CF
:1021600088760208E800002010B50400002C01D198
:10217000012033E0A0690028FFD194F83D00002839
:1021800005D1002084F83C00200003F0B3FF242098
:1021900084F83D002068C06830F400502168C860B1
:1021A000200000F027FB2068006930F4904021688F
:1021B00008612068406930F02A0021684861206881
:1021C000C06850F400502168C860002020642020BE
:1021D00084F83D00202084F83E00002010BD10B49B
:1021E000030093F83D00202823D1002903D01000DC
:1021F00080B2002801D101201CE093F83C000128A6
:1022000001D1022016E0012083F83C0019629A8473
:10221000DA8400201864212083F83D00002083F830
:102220003C001868C06850F080001C68E060002026
:1022300000E0022010BC704770B505000C001600CD
:1022400095F83E00202819D1002C03D0300080B230
:10225000002801D1012012E095F83C00012801D1AD
:1022600002200CE0012085F83C00002028633200A9
:1022700092B22100280000F09CF900E0022070BD1D
:102280002DE9FC470600306807683068D0F80C80FC
:102290003068D0F814900020002517F00F04002CAF
:1022A00008D1B80606D55FEA886003D5300000F093
:1022B00028FA40E1002C77D05FEAC97002D418F404
:1022C000907F71D03800C00706D55FEAC85003D5AB
:1022D000306C50F001003064780706D54846C007DE
:1022E00003D5306C50F002003064B80706D548467C
:1022F000C00703D5306C50F004003064380709D5AE
:102300005FEA886002D44846C00703D5306C50F0BD
:1023100008003064306C002845D0B80605D55FEA67
:10232000886002D5300000F0ECF93068406980091F
:1023300010F001000500306C000701D4002D2DD0F5
:10234000300000F05BF930684069400622D5306803
:10235000143050E8000F30F040000100306810F1F8
:10236000140242E800100028F1D1B06B00280DD013
:102370000FF2F120B16B0865B06B04F031F9002861
:1023800011D0B06BB16B096D88470CE0300004F0E0
:10239000C3FA08E0300004F0BFFA04E0300004F0B3
:1023A000BBFA00203064C6E0306B012840F0B180F9
:1023B000F80640F1AE805FEAC86040F1AA800020D4
:1023C0000090306800680090306840680090009885
:1023D0003068406940065BD5B06B0068D0F804A057
:1023E000504680B2002852D05046B18D80B288420B
:1023F0004DD2A6F82EA0B06BC069B0F5807F3FD05B
:1024000030680C3050E8000F30F480700100306804
:1024100010F10C0242E800100028F1D130681430AD
:1024200050E8000F400840000100306810F114022D
:1024300042E800100028F1D13068143050E8000F55
:1024400030F040000100306810F1140242E8001042
:102450000028F1D1202086F83E000020306330684B
:102460000C3050E8000F30F010000100306810F11F
:102470000C0242E800100028F1D1B06B04F062F8C1
:10248000B18DF08D091A89B2300004F046FA52E09D
:10249000B6F82CA0F08DBAEB000AF08D002837D0EA
:1024A000504680B2002833D030680C3050E8000F1E
:1024B00030F490700100306810F10C0242E8001016
:1024C0000028F1D13068143050E8000F4008400077
:1024D0000100306810F1140242E800100028F1D128
:1024E000202086F83E000020306330680C3050E831
:1024F000000F30F010000100306810F10C0242E8CB
:1025000000100028F1D1514689B2300004F005FADC
:1025100011E0380606D55FEA086003D5300000F008
:10252000ADF808E0780606D55FEA486003D53000CC
:1025300000F0D7F8FFE7BDE8F3870100002291F82B
:102540003C00012801D1022014E0012081F83C0068
:10255000242081F83D000868C36833F00C0353F071
:1025600008030868C360202081F83D00002081F83E
:102570003C00002070470100002291F83C00012837
:1025800001D1022014E0012081F83C00242081F8D0
:102590003D000868C36833F00C0353F00403086877
:1025A000C360202081F83D00002081F83C0000201D
:1025B000704710B4030099629A85DA850020186488
:1025C000222083F83E00002083F83C001869002890
:1025D00005D01868C06850F480701C68E060186806
:1025E000406950F001001C6860611868C06850F0D4
:1025F00020001C68E060002010BC704701680C31AE
:1026000051E8001F31F490710A00016811F10C03C8
:1026100043E800210029F1D10168143151E8001F7D
:10262000490849000A00016811F1140343E8002138
:102630000029F1D1016B01290DD101680C3151E85C
:10264000001F31F010010A00016811F10C0343E88A
:1026500000210029F1D1202180F83E1000210163E2
:102660007047000038B50400A56B0020E885002005
:10267000E884280004F050F931BD0000010091F811
:102680003D0021282BD18868B0F5805F0DD1086905
:1026900000280AD1086A02001088C005C00D0B6826
:1026A0005860086A801C086205E0086A431C0B62D7
:1026B00000780B685860C88C401EC88480B200281F
:1026C0000BD10868C06830F080000B68D8600868DB
:1026D000C06850F040000B68D860002000E0022085
:1026E000704710B504002068C06830F040002168D1
:1026F000C860202084F83D00200004F00FF900207D
:1027000010BD7CB5040094F83E00222870D1A0686A
:10271000B0F5805F0DD1206900280AD10025A66A96
:1027200020684068C005C00D3080A06A801CA0628F
:1027300017E0A56A0026A068B0F5805F05D0A06804
:10274000002806D12069002803D12068406828703D
:1027500004E02068406810F07F002870A06A401CE8
:10276000A062E08D401EE08580B200283ED1206846
:10277000C06830F020002168C8602068C06830F46C
:1027800080702168C8602068406940084000216866
:102790004861202084F83E00206B012821D10020D0
:1027A000206320680C3050E8000F30F0100001006A
:1027B000206810F10C0242E800100028F1D12068D6
:1027C0000068C00608D500200090206800680090CE
:1027D0002068406800900098A18D200004F09DF8CA
:1027E00002E0200004F0E3F8002002E0002000E016
:1027F000022076BD2DE9F84F84B0050028680169F4
:1028000031F44051E868014328680161A9682869EA
:10281000014368690143E869014303912868C1687D
:10282000B0480140039801432868C16028684169A5
:1028300031F44071A8690143286841612868AA49B8
:10284000884203D02868A949884203D103F0AEF832
:10285000040002E003F09FF80400E869B0F5004FBF
:1028600040F09F807FF0630A5FF002085FF000098C
:102870001926002722000023A6FB020106FB0311F4
:1028800007FB0211CDE9000168680021A8FB0023C5
:1028900008FB013309FB0033DDE9000104F088F98E
:1028A0006421B0FBF1F0009022000023A6FB02019E
:1028B00006FB031107FB0211CDE901016868002145
:1028C000A8FB002308FB013309FB0033DDE901010C
:1028D00004F06EF9834622000023A6FB020106FBEA
:1028E000031107FB0211CDE9010168680021A8FB73
:1028F000002308FB013309FB0033DDE9010104F08B
:1029000057F96421B0FBF1F00AFB00B0C00032308F
:102910006421B0FBF1F0400010F4F870009910EB66
:102920000110009022000023A6FB020106FB031108
:1029300007FB0211CDE9010168680021A8FB002313
:1029400008FB013309FB0033DDE9010104F030F934
:10295000834622000023A6FB020106FB031107FBAE
:10296000021106000F0068680021A8FB002308FB85
:10297000013309FB00333000390004F019F96421F8
:10298000B0FBF1F00AFB00BA5FEACA003230642102
:10299000B0FBF1F111F00701009809182868816077
:1029A0009CE05FF004085FF000097FF0630A1926DD
:1029B000002722000023A6FB020106FB031107FBF0
:1029C0000211CDE9000168680021A8FB002308FB83
:1029D000013309FB0033DDE9000104F0E9F864216B
:1029E000B0FBF1F0009022000023A6FB020106FBE1
:1029F000031107FB0211CDE9010168680021A8FB62
:102A0000002308FB013309FB0033DDE9010104F079
:102A1000CFF8834622000023A6FB020106FB031128
:102A200007FB0211CDE9010168680021A8FB002322
:102A300008FB013309FB0033DDE9010104F0B8F8BC
:102A40006421B0FBF1F00AFB00B0000132306421D8
:102A5000B0FBF1F010F0F000009910EB01100090C5
:102A600022000023A6FB020106FB031107FB021153
:102A7000CDE9010168680021A8FB002308FB0133B0
:102A800009FB0033DDE9010104F092F883462200DE
:102A90000023A6FB020106FB031107FB021106003F
:102AA0000F0068680021A8FB002308FB013309FB25
:102AB00000333000390004F07BF86421B0FBF1F002
:102AC0000AFB00BA5FEA0A1032306421B0FBF1F170
:102AD00011F00F01009809182868816005B0BDE861
:102AE000F08F0000F369FFFF001001400014014067
:102AF00010B50400002C01D101202FE094F83D0016
:102B0000002805D1002084F83C00200003F0A2F941
:102B1000022084F83D00211D206800F0E4FD012022
:102B200084F84600012084F83E00012084F83F002C
:102B3000012084F84000012084F84100012084F83D
:102B40004200012084F84300012084F84400012061
:102B500084F84500012084F83D00002010BD0100EC
:102B600091F83D00012801D001203EE0022081F8CB
:102B70003D000868DFF8CC34984221D00868B0F1F5
:102B8000804F1DD00868DFF8C034984218D008681C
:102B9000DFF8B834984213D00868DFF8B4349842AC
:102BA0000ED00868DFF8AC34984209D00868DFF826
:102BB000A834984204D00868DFF8A03498420DD1B8
:102BC0000868806810F007000200062A0CD0086828
:102BD000006850F001000B68186005E008680068A4
:102BE00050F001000B68186000207047010091F858
:102BF0003D00012801D0012044E0022081F83D0081
:102C00000868C06850F001000B68D8600868DFF8F9
:102C10003434984221D00868B0F1804F1DD0086844
:102C2000DFF82434984218D00868DFF8203498423E
:102C300013D00868DFF8183498420ED00868DFF81F
:102C40001434984209D00868DFF80C34984204D054
:102C50000868DFF8083498420DD10868806810F0E1
:102C600007000200062A0CD00868006850F0010036
:102C70000B68186005E00868006850F001000B68F8
:102C800018600020704701000868C06840084000D4
:102C90000A68D0600868006A41F2111210420BD134
:102CA0000868006A40F24442104205D10868006892
:102CB000400840000A681060012081F83D000020B3
:102CC000704770B505000C00002C02D195F83E004D
:102CD0000BE0042C02D195F83F0006E0082C02D14D
:102CE00095F8400001E095F84100012801D001204D
:102CF0006DE0002C04D1022085F83E00C0B211E046
:102D0000042C04D1022085F83F00C0B20AE0082C50
:102D100004D1022085F84000C0B203E0022085F80B
:102D20004100C0B201222100286800F0B5FEDFF8A2
:102D300014032968814204D02968DFF818239142DE
:102D400001D1012100E00021C9B2002905D0296884
:102D5000496C51F400412A6851642968814221D0AC
:102D60002868B0F1804F1DD02868DFF8DC12884257
:102D700018D02868DFF8D412884213D02868DFF80A
:102D8000D01288420ED02868DFF8C812884209D0D5
:102D90002868DFF8C412884204D02868DFF8BC1223
:102DA00088420DD12868806810F007000600062EC2
:102DB0000CD02868006850F001002968086005E020
:102DC0002868006850F0010029680860002070BD84
:102DD000F8B505000C000026002C02D195F83E0045
:102DE0000BE0042C02D195F83F0006E0082C02D13C
:102DF00095F8400001E095F84100012801D001203C
:102E00009AE0002C04D1022085F83E00C0B211E007
:102E1000042C04D1022085F83F00C0B20AE0082C3F
:102E200004D1022085F84000C0B203E0022085F8FA
:102E30004100C0B22000002806D004280BD008288A
:102E400010D00C2815D01BE02868C06850F0020094
:102E50002968C86016E02868C06850F00400296836
:102E6000C8600FE02868C06850F008002968C86092
:102E700008E02868C06850F010002968C86001E0C8
:102E8000012006003000C0B2002853D101222100E9
:102E9000286800F001FEDFF8AC012968814204D007
:102EA0002968DFF8B021914201D1012100E0002121
:102EB000C9B2002905D02968496C51F400412A683B
:102EC00051642968814221D02868B0F1804F1DD01B
:102ED0002868DFF87411884218D02868DFF86C1170
:102EE000884213D02868DFF8681188420ED028681D
:102EF000DFF86011884209D02868DFF85C11884249
:102F000004D02868DFF8541188420DD12868806801
:102F100010F007000700062F0CD02868006850F05A
:102F200001002968086005E02868006850F0010089
:102F3000296808603000C0B2F2BD70B505000C0011
:102F400000262000002806D004280BD0082810D026
:102F50000C2815D01BE02868C06830F002002968F2
:102F6000C86016E02868C06830F004002968C860AE
:102F70000FE02868C06830F008002968C86008E0E1
:102F80002868C06830F010002968C86001E001209E
:102F900006003000C0B2002851D10022210028686C
:102FA00000F07AFD2868DFF89C10884204D0286879
:102FB000DFF8A010884201D1012000E00020C0B25B
:102FC000002811D02868006A41F2111108420BD183
:102FD0002868006A40F24441084205D12868406CE4
:102FE00030F40040296848642868006A41F21111F1
:102FF00008420BD12868006A40F24441084205D1DA
:10300000286800684008400029680860002C04D146
:10301000012085F83E00C0B211E0042C04D101204B
:1030200085F83F00C0B20AE0082C04D1012085F8E1
:103030004000C0B203E0012085F84100C0B230007A
:10304000C0B270BD00000140000400400008004014
:10305000000C004000040140004001400018004006
:1030600010B50400002C01D101202FE094F83D00A0
:10307000002805D1002084F83C00200003F0B0FEB9
:10308000022084F83D00211D206800F02CFB012067
:1030900084F84600012084F83E00012084F83F00B7
:1030A000012084F84000012084F84100012084F8C8
:1030B0004200012084F84300012084F844000120EC
:1030C00084F84500012084F83D00002010BD70B553
:1030D00005000C00002C02D195F83E000BE0042CFA
:1030E00002D195F83F0006E0082C02D195F8400087
:1030F00001E095F84100012801D001206DE0002C8D
:1031000004D1022085F83E00C0B211E0042C04D1A5
:10311000022085F83F00C0B20AE0082C04D102204A
:1031200085F84000C0B203E0022085F84100C0B23B
:1031300001222100286800F0AFFCDFF85001296867
:10314000814204D02968DFF84821914201D1012150
:1031500000E00021C9B2002905D02968496C51F46A
:1031600000412A6851642968814221D02868B0F161
:10317000804F1DD02868DFF81C11884218D02868BD
:10318000DFF81411884213D02868DFF81011884244
:103190000ED02868DFF8F810884209D02868DFF8D8
:1031A0000011884204D02868DFF8F81088420DD159
:1031B0002868806810F007000600062E0CD02868EA
:1031C000006850F001002968086005E02868006880
:1031D00050F0010029680860002070BD38B5050076
:1031E0000C0000222100286800F056FC2868DFF857
:1031F0009C10884204D02868DFF89410884201D1DE
:10320000012000E00020C0B2002811D02868006A28
:1032100041F2111108420BD12868006A40F2444182
:10322000084205D12868406C30F4004029684864A1
:103230002868006A41F2111108420BD12868006A1F
:1032400040F24441084205D1286800684008400027
:1032500029680860002C04D1012085F83E00C0B226
:1032600011E0042C04D1012085F83F00C0B20AE02F
:10327000082C04D1012085F84000C0B203E00120F1
:1032800085F84100C0B2002032BD000000000140BE
:10329000000401400004004000080040000C004011
:1032A000004001400018004038B504000D00002C1B
:1032B00001D1012032E094F83D00002805D1002022
:1032C00084F83C00200003F08CFD022084F83D00CF
:1032D000211D206800F007FA2068006830F008001F
:1032E0002168086020680068284321680860012080
:1032F00084F84600012084F83E00C0B2012084F822
:103300003F00C0B2012084F84200C0B2012084F81E
:103310004300C0B2012084F83D00002032BD10B54A
:1033200004002068006980071AD52068C0688007FB
:1033300016D57FF0020021680861012020772068FF
:10334000806910F0030F03D0200003F04BFD05E06F
:10335000200003F004FF200003F07AFF0020207714
:103360002068006940071AD52068C068400716D554
:103370007FF00400216808610220207720688069BE
:1033800010F4407F03D0200003F02CFD05E0200066
:1033900003F0E5FE200003F05BFF002020772068AB
:1033A000006900071AD52068C068000716D57FF0AD
:1033B000080021680861042020772068C06910F0A7
:1033C000030F03D0200003F00DFD05E0200003F003
:1033D000C6FE200003F03CFF002020772068006933
:1033E000C0061AD52068C068C00616D57FF0100048
:1033F00021680861082020772068C06910F4407FA8
:1034000003D0200003F0EEFC05E0200003F0A7FE4F
:10341000200003F01DFF0020207720680069C0070E
:103420000AD52068C068C00706D57FF00100216872
:103430000861200003F06FFE2068006900060AD5CD
:103440002068C068000606D57FF08000216808610A
:10345000200003F0FEFE2068006940060AD52068BF
:10346000C068400606D57FF0400021680861200052
:1034700003F0F0FE2068006980060AD52068C06865
:10348000800606D57FF0200021680861200003F047
:10349000E2FE10BDF8B504000D001600002794F8F8
:1034A0003C00012801D1022071E0012084F83C0099
:1034B0003000002806D004281BD0082831D00C2862
:1034C00046D05DE02900206800F072F9206880692C
:1034D00050F00800216888612068806930F004009D
:1034E00021688861206881692869014320688161B9
:1034F00048E02900206800F08FF92068806950F4C6
:103500000060216888612068806930F480602168EB
:10351000886120688069296950EA012021688861F2
:1035200030E02900206800F0AFF92068C06950F051
:1035300008002168C8612068C06930F00400216873
:10354000C8612068C169286901432068C16119E028
:103550002900206800F0CEF92068C06950F40060AE
:103560002168C8612068C06930F480602168C86142
:103570002068C069296950EA01202168C86101E01A
:1035800001200700002084F83C003800C0B2F2BDE2
:10359000F8B504000D00002694F83C00012801D184
:1035A00002206EE0012084F83C00022084F83D00F7
:1035B0002068876837F0770737F47F47206887608F
:1035C000286800284ED010284CD020284AD0302817
:1035D00048D040283CD0502826D060282ED07028D3
:1035E00007D0B0F5805F03D0B0F5005F0FD03EE0AC
:1035F0003FE0EB686A68A968206800F042FA20683A
:10360000806850F0770007002068876031E0EB6841
:103610006A68A968206800F034FA2068806850F46D
:1036200080402168886024E0EA686968206800F0CA
:10363000FBF95021206800F01CFA1AE0EA6869687A
:10364000206800F003FA6021206800F012FA10E010
:10365000EA686968206800F0E7F94021206800F016
:1036600008FA06E02968206800F003FA01E001206A
:103670000600012084F83D00002084F83C00300062
:10368000C0B2F2BD38B504000D0094F83C0001282A
:1036900001D1022026E0012084F83C00022084F8B9
:1036A0003D002900200000F04BF9002807D0012040
:1036B00084F83D00002084F83C00012012E02068DE
:1036C000C06830F040002168C8602068C06830F4ED
:1036D00080402168C860012084F83D00002084F803
:1036E0003C00002032BD10B40368DFF81043A04254
:1036F00012D0B0F1804F0FD0DFF8042390420BD0EE
:10370000DFF80023904207D0DFF8FC22904203D07C
:10371000DFF8F822904204D133F070031A004B68AE
:103720001343A0422AD0B0F1804F27D0DFF8D02237
:10373000904223D0DFF8CC2290421FD0DFF8C8227D
:1037400090421BD0DFF8C422904217D0DFF8C0228D
:10375000904213D0DFF8BC2290420FD0DFF8B8229D
:1037600090420BD0DFF8B422904207D0DFF8B022AD
:10377000904203D0DFF8AC22904204D133F440737E
:103780001A00CB68134333F080034A691343036084
:103790008A68C2620A688262A04202D09B4A904252
:1037A00001D10A6902630122426110BC7047000026
:1037B00070B4026A520852000262046A4568836962
:1037C00033F070039B089B000A68134334F0020433
:1037D0008A681443894EB04202D08C4A904205D187
:1037E00034F00804CA68144334F00404B04202D030
:1037F000864A904208D135F4807535F400754A69DF
:1038000015432A008D691543456083614A68426308
:10381000046270BC7047000070B4026A32F010029B
:103820000262036A4468826932F4E04232F4407210
:103830000D6852EA052233F020038D6853EA051320
:103840006E4DA84202D0714EB04206D133F08003D3
:10385000CE6853EA061333F04003A84202D06B4D02
:10386000A84209D134F4806434F400644D6954EA08
:1038700085048D6954EA8504446082614D688563DE
:10388000036270BC7047000070B4026A32F4807248
:103890000262046A4568C36933F070039B089B00A9
:1038A0000A68134334F400748A6854EA0224534AC1
:1038B000904202D0554EB04206D134F40064CE6836
:1038C00054EA062434F48064904202D04F4A904275
:1038D00009D135F4805535F400554A6955EA021589
:1038E0008A6955EA02154560C3614A68C263046289
:1038F00070BC704730B4026A32F480520262036ACC
:103900004468C26932F4E04232F440720D6852EA0F
:10391000052233F400538D6853EA0533374DA8422E
:1039200002D03A4DA84204D134F480444D6954EA9F
:1039300085144460C2614D680564036230BC704701
:103940002DE9F84304000D0000262068D0F8089007
:1039500039F07009686850EA09095FEAD9095FEA35
:10396000C909286850EA09092068C0F80890686801
:1039700000283CD010283AD0202838D0302836D023
:1039800040280CD0502826D060282AD070282FD16B
:103990002B69AA68E968206800F073F82AE02868B3
:1039A000052801D1012027E02068006A80462068B0
:1039B000006A40084000216808622068806930F091
:1039C000F000296950EA011007002068876120682B
:1039D000C0F820800EE02A69A968206800F024F869
:1039E00008E02A69A968206800F030F802E001E0E8
:1039F000012006003000C0B2BDE8F28300000140A3
:103A00000004004000080040000C00400004014099
:103A100000400140004401400048014000180040BF
:103A2000001C00400020004010B4046A036A5B08D8
:103A30005B000362836933F0F00353EA021334F04E
:103A40000A040C438361046210BC704710B4036A1B
:103A500033F0100303628369046A33F4704353EA5A
:103A6000023334F0A00454EA01148361046210BCF0
:103A70007047826832F070020A4352F00702826097
:103A8000704710B4846834F47F440C43144354EA00
:103A90000324846010BC704730B4012411F01F036C
:103AA0009C40036AA3430362036A11F01F0512FAE4
:103AB00005F52B43036230BC70470EE00268436893
:103AC000024408305FEAC37C44BF4B445B1E52F89B
:103AD00004CB43F804CB091FF9D150F8041B00298B
:103AE000ECD1704738B504000025002C01D101202D
:103AF00029E0A06ADFF8B0148842206C002807D1C2
:103B0000200002F098F800206064002084F83C0057
:103B1000206CC00610D4206C30F4885050F00200A5
:103B20002064200000F092F9002060640120216CE4
:103B300060F30101216401E001200500002084F808
:103B40003C002800C0B232BDF8B504000D001600DC
:103B50000020009094F83C00012801D10220B6E03A
:103B6000012084F83C0020688068C00716D42068D3
:103B7000806850F0010021688860DFF83004006838
:103B8000DFF82C14B0FBF1F10320414300910098C1
:103B9000002803D00098401E0090F8E72068806855
:103BA000C00505D52068806830F480702168886081
:103BB00020688068C00740F18180216CDFF8F40341
:103BC000014051F48071216420684068400504D5AB
:103BD0000120216C60F30D312164206CC00404D5F8
:103BE000606C30F00600606401E00020606400203A
:103BF00084F83C00DFF8C00307000FF2D130A16B5E
:103C0000C8630FF24540A16B08640FF24D40A16BF1
:103C1000C8647FF02200216808602068406850F086
:103C20008060216848602068806850F48070216856
:103C3000886033002A00206810F14C01A06B02F06C
:103C40003BFC786810F01F0F27D12068DFF86C1359
:103C5000884216D02068DFF86813884205D1DFF863
:103C60006403006810F01F0F0BD02068DFF85813B2
:103C700088422BD1DFF84C03006810F01F00102899
:103C800024D22068806810F0405F1FD120688068CF
:103C900050F080402168886018E02068DFF81C132D
:103CA000884213D12068806810F0405F0ED12068F0
:103CB000806850F080402168886007E0206C50F0F8
:103CC00010002064606C50F0010060640020F2BDC0
:103CD00038B402000020009092F83C00012801D185
:103CE0000220B1E0012082F83C0008680A2818D3BD
:103CF0001068C368072408680A38032510FB05F01C
:103D00008440A3431068C3601068C3688C68086867
:103D10000A38032510FB05F0844023431068C36074
:103D200013E01068036907240D6803204543AC4085
:103D3000A34310680361106803698C680D68032051
:103D40004543AC402343106803614868072818D2F4
:103D50001068436B1F244868401E052510FB05F0C2
:103D60008440A343106843631068436B0C88486821
:103D7000401E052510FB05F0844023431068436373
:103D800033E048680D2818D21068036B1F24486878
:103D9000C01F052510FB05F08440A3431068036392
:103DA0001068036B0C884868C01F052510FB05F0E0
:103DB000844023431068036317E01068C36A1F241C
:103DC00048680D38052510FB05F08440A3431068B2
:103DD000C3621068C36A0C8848680D38052510FB5B
:103DE00005F0844023431068C362734B7348146822
:103DF000844206D10C68122C03D15C6854F4800410
:103E00005C60146884421BD10868102802D00868DE
:103E1000112815D1586850F400005860086810281F
:103E20000ED162480068624CB0FBF4F40A204443AF
:103E300000940098002803D00098401E0090F8E7F6
:103E4000002082F83C00002032BC70475A4A51687A
:103E500031F440315160536841680B43536001684D
:103E6000496831F4807103685960016849680369E1
:103E700051EA0321036859600168496831F04071D3
:103E80000368596001684B6881680B4301684B60A7
:103E90000168896831F400610368996001688B6882
:103EA000C1680B4301688B60816A3F4B994218D00F
:103EB0000168896831F070610368996001688B68F6
:103EC000816A0B4301688B600168896831F0405159
:103ED0000368996001688B68C16A0B4301688B6055
:103EE0000BE00168896831F07061036899600168CE
:103EF000896831F04051036899600168896831F040
:103F000002010368996001688968037E51EA4301F0
:103F10000368996090F82010002914D0016849685E
:103F200051F40061036859600168496831F46041E7
:103F30000368596001684968436A5B1E51EA43316E
:103F40000368596005E00168496831F4006103685D
:103F500059600168C96A31F470010368D962016867
:103F6000C96AC3695B1E51EA03510368D9620168DB
:103F7000896831F40071036899600168896890F874
:103F8000303051EA4321036899600168896831F44F
:103F900080610368996001688968436951EA8321F7
:103FA00003689960704700000100000F08010020BD
:103FB00040420F00FEF9FFFF0023014000200140B6
:103FC00000210140042301400022014038B50400D3
:103FD000A56B286C10F0500F29D1286C50F400709C
:103FE00028642868806810F0405F1CD1287E002873
:103FF00019D12868C06A10F4700F03D0286880684F
:10400000400510D42868406830F0200029684860D6
:10401000286C30F480702864286CC00403D4286CA9
:1040200050F001002864280002F045FF0AE0286CE7
:10403000C00603D5280003F00FF903E02000A96BA8
:10404000C96C884731BD000038B50400A56B280055
:1040500003F003F931BD000038B50400A56B402022
:104060002864686C50F004006864280003F0F4F8D9
:1040700031BD1F0010B50400002C01D101200EE05D
:104080002079002804D100206071200001F091FE09
:10409000022020710020206101202071002010BD2D
:1040A00010B402005079012801D1022030E0012033
:1040B00050710220107110680368012411F0100083
:1040C000844023431068036000290CD11068006805
:1040D00010F03C003C2816D11068406850F00100F8
:1040E000136858600FE01068036813F470133C24E1
:1040F00011F010008440A34205D11068406850F0D0
:1041000002001368586001201071002050710020D7
:1041100010BC704718B40400002000902068009084
:10412000002904D1009810180830009003E000988E
:1041300010181430009000980360002012BC7047E3
:10414000F0B403005879012801D1022023E00120B6
:104150005871022018711868046840F6FE7512F054
:1041600010008540AC4308684D68054312F010000C
:1041700015FA00F004431868046018680668C02740
:1041800012F010008740BE431868066001201871C5
:10419000002058710020F0BC70470000F8B50024E2
:1041A000002500260023102B80F00C815FF0010C0D
:1041B0001CFA03F214000A6822401500A54240F0E0
:1041C000FF800A7912F00302012A04D00A7912F062
:1041D0000302022A22D187685FF0030E1A00D2B2CE
:1041E00052001EFA02FE37EA0E07D1F80CE01A0060
:1041F000D2B252001EFA02FE5EEA070787604268EA
:104200001CFA03FC32EA0C02D1F804C0CCF3001C07
:104210001CFA03FC5CEA0202160046600A7912F0FE
:104220000302032A14D0C7685FF0030C1A00D2B24D
:1042300052001CFA02FC37EA0C07D1F808C01A0039
:10424000D2B252001CFA02FC5CEA07073E00C660CC
:104250000A7912F00302022A1ED11A00D20800EBDA
:104260008202176A5FF00F0C13F00702D2B29200BD
:104270001CFA02FC37EA0C07D1F810C013F0070251
:10428000D2B292001CFA02FC5CEA07073E001A0058
:10429000D20800EB8202166207685FF0030C1A0076
:1042A000D2B252001CFA02FC37EA0C0791F804C0A3
:1042B0001CF0030C1A00D2B252001CFA02FC5CEA99
:1042C00007073E0006604A6812F4403F78D000229B
:1042D0000092DFF83C21176857F480471760126896
:1042E00012F480420092009ADFF828C11A00920866
:1042F0005CF822705FF00F0E13F00302D2B292004E
:104300001EFA02FE37EA0E07434A904201D1002608
:1043100023E0424A904201D101261EE0404A9042E9
:1043200001D1022619E03F4A904201D1032614E050
:104330003D4A904201D104260FE03C4A904201D10F
:1043400005260AE03A4A904201D1062605E0394A9C
:10435000904201D1072600E00826F6B213F00302CE
:10436000D2B29200964037431A0092084CF822705D
:10437000314E3268AA43D1F804C05FEACC2C00D594
:104380002A4332602D4F3E68AE43D1F804C05FEA45
:104390008C2C00D52E433E60294F3A68AA43D1F8B1
:1043A00004C05FEA8C3C00D52A433A60254F3E6842
:1043B000AE43D1F804C05FEACC3C00D52E433E604A
:1043C0005B1CF0E6F1BD020010690B009BB21842C5
:1043D00001D0012000E00020C0B270471300DBB222
:1043E000002B03D00B009BB2836103E00B009BB258
:1043F0001B048361704710B442690B009BB21340E9
:104400000C00A4B2944354EA0344846110BC704786
:1044100044380240083801400000024000040240D5
:1044200000080240000C024000100240001402404C
:1044300000180240001C0240083C01400C3C0140B6
:10444000043C0140003C01402DE9F84F2DED028B6A
:1044500082B0DFF8B0070178490740F1F6820178B1
:1044600011F0FB01017041F28831DFF89C271160E7
:104470000021DFF898271170DFF89467DFF8947750
:1044800079783170B97811F00301032940F07A820C
:10449000F878002837D0082800F09180092800F02B
:1044A0008A8110285FD0112873D0152802D01A28CD
:1044B0000AD066E27879012805D1DFF85C07DFF8D9
:1044C0005C170860C1E2C0E2787901281AD10720A0
:1044D00000F0E6FA592000F0E3FA5A2000F0E0FA82
:1044E0005B2000F0DDFA5C2000F0DAFA5D2000F0DD
:1044F000D7FA5E2000F0D4FA5F2000F0D1FA002055
:1045000000F0CEFAA1E2307800F0CAFA032000F001
:10451000C7FAF87800F0C4FA042000F0C1FADFF816
:1045200000673088C0B200F0BBFA30884FF4807169
:1045300090FBF1F0C0B200F0B3FADFF8E866308823
:10454000C0B200F0ADFA30884FF4807190FBF1F00A
:10455000C0B200F0A5FA002000F0A2FA0020DFF8B7
:10456000C816087071E2307800F09AFA032000F063
:1045700097FAF87800F094FA012000F091FADFF849
:10458000AC060088C0B200F08BFA002000F088FA78
:104590005BE2307800F084FA032000F081FAF878CA
:1045A00000F07EFA012000F07BFADFF88406008834
:1045B000C0B200F075FA002000F072FA45E2DFF8B0
:1045C0007486787988F80000DFF86C96B9F80000F6
:1045D000ADF8000099F802000400B9798022F8795A
:1045E00002FB0101A9F80010387A89F80200BDF831
:1045F0000000B9F80010884205D1200099F8021097
:10460000C0B2884207D0B9F8001089B299F8020008
:1046100080B2FBF75DFE787ADFF8201608803078EC
:1046200000F03EFA032000F03BFAF87800F038FA88
:10463000112000F035FADFF8E8753888C0B200F0D4
:104640002FFA38884FF4807190FBF1F0C0B200F07F
:1046500027FA99F8030000F023FA99F80300DFF82D
:10466000E0150870DFF8DC653088802190FBF1F000
:1046700010F07F0000F014FA307810F07F0000F0A6
:104680000FFADFF8C4653088802190FBF1F010F05C
:104690007F0000F005FA307810F07F0000F000FA9B
:1046A000DFF8A865DFF8A805008830803088802111
:1046B00090FBF1F010F07F0000F0F2F9307810F08C
:1046C0007F0000F0EDF9DFF88C653078802190FBF9
:1046D000F1F010F07F0000F0E3F9307810F07F0087
:1046E00000F0DEF9DFF87065DFF87005008800EE95
:1046F000100AB8EE400ADFEDD70A80EE200ABDEEC0
:10470000C00A10EE100A3080DFF854A5DFF8540517
:10471000008800EE100AB8EE400ADFEDCE0A80EE07
:10472000200ABDEEC00A10EE100AAAF80000308878
:10473000802190FBF1F010F07F0000F0B1F93078AB
:1047400010F07F0000F0ACF9BAF80000802190FB77
:10475000F1F010F07F0000F0A3F99AF8000010F0DB
:104760007F0000F09DF9DFF8BC643088C0B200F033
:1047700097F930884FF4807190FBF1F0C0B200F0EF
:104780008FF9002000F08CF998F80000800602D51F
:10479000002089F8030039884FF6FF500140398026
:1047A00039884FF6FB700140398031884FF6FF5051
:1047B0000140318049E1DFF8B084B8F8000005001D
:1047C00079798022B87902FB0101A8F80010B8F8C5
:1047D000000040F2D171884204DB4FF4FA60A8F87F
:1047E000000006E0B8F80000FA2802DAFA20A8F87B
:1047F0000000B8F80000DFF874140860B8F8000092
:1048000000EE100AB8EE400ADFEDA40A20EE200AFE
:10481000B0EE408ABCEEC80A10EE100AA8F80000FC
:10482000B8F80000854207D0B8F800300022002117
:10483000DFF83C04FFF76EFC0020DFF82814088046
:104840000020DFF818140880DFF82894F879A9F818
:104850000000DFF824A4397A8022787A02FB010173
:10486000AAF80010BAF8000040F22721884204DBC1
:1048700040F22620AAF8000001E0BAF80000DFF8B4
:10488000FCB3B97A8022F87A02FB0101ABF8001080
:10489000BBF8000040F25921884204DB4FF4167047
:1048A000ABF8000006E0BBF80000322802DA322044
:1048B000ABF80000BBF8000080B23238BAF8001044
:1048C000884204DABBF800003238AAF80000DFF8AA
:1048D000B0133A7B8023787B03FB02020A800888AE
:1048E000BBF8002080B2904204D3BBF800003238FD
:1048F000088004E00888322801DA32200880307805
:1049000000F0CEF8032000F0CBF8F87800F0C8F8FB
:10491000072000F0C5F8B8F80000802190FBF1F006
:1049200010F07F0000F0BCF898F8000010F07F0055
:1049300000F0B6F8B9F80000C0B200F0B1F8BAF86B
:104940000000802190FBF1F010F07F0000F0A8F84B
:10495000BAF8000010F07F0000F0A2F8BBF80000E9
:10496000802190FBF1F010F07F0000F099F8BBF887
:10497000000010F07F0000F093F8002000F090F8A5
:1049800063E062E0B97811F00301012933D1B9780D
:1049900011F01C01182958D1BA490A7812F0070FF2
:1049A00008D0B9480078400150F00500C0B200F0CE
:1049B00077F816E00978890610D5017851F00801DA
:1049C0000170B148B978C9B2490901700078400155
:1049D00050F00100C0B200F063F802E0092000F0DE
:1049E0005FF8002000F05CF8002000F059F800208B
:1049F0008D49087029E0B978C90726D4A1490A78F9
:104A000012F0DF020A70017811F0F7010170B87836
:104A1000C0B240099C49097888420AD101209B49CB
:104A200008709B49002008800A88F87802430A80B1
:104A300002E0002095490870012000F031F80020C4
:104A400000F02EF8002000F02BF802B0BDEC028B35
:104A5000BDE8F18F6666E64010B40100C9B27E2958
:104A600003D00100C9B27D290FD168497D22894B4D
:104A70000C781A550A78521C0A7087490A8852FA2B
:104A800080F20A8090F0200004E083490A8852FAFC
:104A900080F20A80C0B210BC704700009CC4004085
:104AA000F8B50400594D2878002802D100207B4930
:104AB00008707A4E3078002803D0401E022818D99A
:104AC00029E0744F7E20297878542878401C28707B
:104AD0004FF6FF70704908802000C0B2FFF7BCFF9E
:104AE000297878542878401C28703078401C307021
:104AF00011E02000C0B2FFF7AFFF66492A78885462
:104B00002878401C28703078032801D1644804704C
:104B10003078401C30703078042854DB60480078CE
:104B2000002850D15C49088880F47F4090F0FF0055
:104B30000880088880B2000A0200D2B27E2A03D020
:104B40000200D2B27D2A08D17D22524B2C781A5510
:104B50002A78521C2A7090F020004E4A2B78D054AC
:104B60002B785B1C2B700C882100C9B27E2903D0E6
:104B70002000C0B27D2807D17D20297850542878A4
:104B8000401C287094F02004287814542878401C85
:104B900028707E20297850542878401C28700020E6
:104BA00040490870002040490880012220213F48E8
:104BB000FFF714FC1348017851F002010170142032
:104BC0003B4908801CE0364F3878002810D03078F8
:104BD00005280DD12000C0B2FFF73EFF2D492A78ED
:104BE00088542878401C28703878401E387007E0B8
:104BF0003878002804D03078042801D1052030709E
:104C0000F1BD0000FA0E00209C0E0020F60E0020E0
:104C1000FB0E00201401002055AA5AA5C000002058
:104C2000D20E0020D40E0020FC0E0020724002089C
:104C3000A40E0020EF0E00208C0E0020B80E0020E5
:104C4000F00E0020BA0E0020BC0E0020CA0E00207C
:104C5000B60E0020EE0E0020C60E0020C00E002072
:104C6000C80E0020C20E0020CC0E0020880E0020AE
:104C7000480E0020CE0E00200E0100201001002062
:104C8000D60E0020FD0E0020FE0E0020FF0E00209C
:104C9000E60E002014050020E20E0020000F002088
:104CA000010F0020F70E0020DE0E0020000402405D
:104CB000E40E002001480068704700BFA00E0020ED
:104CC000C0F3C75181B1FF2906D0C110400721F0C0
:104CD000E04101F16051704741020CBF40F4E00136
:104CE0006FF000410020704700F0004100020AD040
:104CF000B0FA80FC00FA0CF001F16051A1EB0C510C
:104D000001EBD0214005704730B540F2FF7C1CEA32
:104D100011541DBF1CEA1355644565453FE06419F5
:104D200081EA030C6FF35F530CF0004C43F48013E3
:104D3000C90241F0004141EA505EC5021100A5FBE5
:104D4000020200284FF00000EEFB01204FF00001AE
:104D5000E3FB052118BF42F0010240180021494140
:104D6000E3FB0E01A4F580640D0302D292184041CA
:104D7000494154F1010470DD450872F1004250F1DF
:104D8000000051EB0451A1F5801102D441EA0C015D
:104D900030BD40F2FF7E4CEA0E51002030BD0CEADF
:104DA0001355644518BF654581EA030C0CF0004CAF
:104DB00041D050EA410E1CBF52EA430E02E0614668
:104DC000002030BD24422C441BD15FEA050EF6D0F2
:104DD000090302BF01460020AEF1140EB1FA81F5BD
:104DE000AEEB050401FA05FE0C35C5F1200100FA11
:104DF00005F5C8404EEA000E6FF35F5343F480138D
:104E00009CE733F00043B3FA83F504BFB2FA82FEA5
:104E100075440B3D641BB5F1200E2FBF02FA0EF353
:104E2000AB40C5F1200E22FA0EFE38BF43EA0E0356
:104E3000AA40641C7CE750EA410E14BF52EA430EBC
:104E40006FF000014FF4001515EB430F8EBF1946AC
:104E500015EB410F9DE7B4D830BDD4F10104B4F196
:104E600020050FDAC4F12005520828BF42F00102E4
:104E700010FA05FE01FA05F57244E2BFE04028434E
:104E8000E1400FE0352C9ADCC5F1200452EA4002E3
:104E900020FA05F218BF42F0010231FA05F0A140F4
:104EA0000A43002172F1004250F1000051EB0C0165
:104EB00030BD000001F000428B1AA3F16051B1F542
:104EC000801F0ADBB1F17F6F1FD242EAC102C1002D
:104ED00071F1004142EB507070470B15C3F10903AB
:104EE000212B10D2890241EA9051800201284941C8
:104EF00041F0004121FA03F0C3F12003994071F120
:104F0000004150417047100070476FF0000013EBF4
:104F1000103F5CBF000E42EAC050704750B1B0FA7B
:104F200080F18840C91CC1F58461090501EBD021DD
:104F30004005704701467047F0B540F2FF7581EAC1
:104F4000030C0CF0004C15EA11541DBF15EA135761
:104F5000AC42AF42E5E0BC41C1F31301C3F313031C
:104F6000801A994143F4801304D2641E0018494109
:104F700080185941C90241EA5051B1FBF3F603FBD5
:104F80001611A2FB0675D7EBC020A94102D2761EEE
:104F900080185941C90241EA5051B1FBF3FE03FBAD
:104FA0001E11A2FB0E75D7EBC020A94103D2AEF1B2
:104FB000010E80185941890241EA9051760546EA6E
:104FC0008E2EB1FBF3F603FB1611A2FB0675D7EB91
:104FD0008020A94102D2761E80185941C90241EAB7
:104FE00050514EEA060EB1FBF3F603FB1611A2FB7D
:104FF0000675D7EBC020A94102D2761E8018594110
:10500000C90241EA5051B1FBF3F703FB1711A2FBB0
:105010000735D3EBC020A94167F100070CBF004260
:1050200047F0010766F3D5274FEA1E31B80814F59B
:10503000806412DDBD0775F1004250EB0E5051EB5C
:10504000045111F5801F5CBF41EA0C01F0BD4CF02A
:105050007F6141F0E0410020F0BDBD076D0840EAEE
:105060000E5041F48011D4F10104B4F120060ADAA3
:10507000C4F120060200E04001FA06F3E1401843C3
:10508000B24015430EE0342C13DCC6F1200445EA8F
:1050900040056D0820FA06F2154321FA06F0A140FA
:1050A0000D43002175F1004250F1000051EB0C015D
:1050B000F0BD00205FEA0C01F0BDCFB992185B4152
:1050C000B3FA83F704BFB2FA82F6BF190B3FB7F108
:1050D00020062FBF02FA06F3BB40C7F1200622FAD2
:1050E00006F638BF3343BA401CB1E419641E33E7F7
:1050F0007F4231F00041B1FA81F404BFB0FA80F68A
:10510000A4190B3CB4F120062FBF00FA06F1A14010
:10511000C4F1200620FA06F638BF3143A0403C1BFC
:105120001AE7AC421ABF05EA1357AF4212E050EA41
:1051300041061CBF52EA4306BFE750EA410730462A
:1051400061461CBF41EA0551F0BD52EA430C08BF5D
:10515000C143F0BD00204FF4001616EB410F98BF7D
:1051600016EB430F08BF16EB410F24BFC14305E008
:1051700016EB430F0CBF61464CEA0551F0BD000031
:1051800070B491EA030F4FF0004540F1B7806B40D7
:10519000841A71EB030604D26E40001BB141121950
:1051A00073414FF4001C1CEB410F34BF7CEB4306F2
:1051B00083E00C0DA4EB1356362E00F37C80012EF9
:1051C00045EAC32341DC43EA525312BFD2029202A2
:1051D0005B08240545EAC12141EA5051D2EBC020C9
:1051E000994125D407D1B0FA80F610FA06F162D0C1
:1051F0000020203608E0B1FA81F6B140C6F1200265
:1052000020FA02F21143B0404FEAF474B4EB465472
:1052100034F001064FEA74040AD8D6F50016760D6C
:1052200004F00044F04061FA06F25040F14048407A
:10523000C00A40EA415021F0004128BF5FEA500512
:1052400050F1000044EBD12135E0DB0A45EAC121F1
:10525000C90AB6F120050EDD42EA0242120CC5F180
:10526000200603FA06F6EB4042EA06056D42984135
:1052700061F100010DE062FA06F5F240554063FA73
:1052800006FC82EA0C02F3405A406D42904161EB09
:10529000030111F4801F05D1641E620502D06D0068
:1052A0004041494121F48011430875F1004350F118
:1052B000000041EB045170BC70471CEB410F15D24C
:1052C00023F0004352EA43060BD04FEA4C0CBCEBF0
:1052D000410F04D80C0D661E342EB7DDEBE7801AA3
:1052E000994150EA410608BF0021E4E708BF1CEBE2
:1052F000430F28BF6FF00001DDE70000841A71EB57
:10530000030603D2001BB141121973414FF4001C74
:105310001CEB410F34BF7CEB430442E00C0DA4EBCB
:105320001356352E4FDC45EAC323DB0A45EAC1217B
:10533000C912B6F120050DDD63FA05F6EB4086EAE9
:105340000305124218BF45F00105C01851F10001D4
:105350000CD213E062FA06F5F2405540F3415A4090
:10536000B340F3405A408018594107D349085FEAD7
:1053700030005FEA350528BF45F0010501F58011D1
:10538000420875F1004250F1000041EB04514E001B
:1053900016F5001F70BC38BF70470020090D0905C5
:1053A00070471CEB410F10D252EA43060BD0BCEB06
:1053B000410F05D80C0DAB43661E342EB6DD02E05E
:1053C000AB438018594170BC704770BC70470000F7
:1053D00070B50400FFF76EFC0500260016F1010F02
:1053E00002D0044800783618FFF764FC401BB04236
:1053F000FAD370BD1301002062F30F2262F31F4243
:10540000401810F0030308D0C91A1FD3DB0748BFA8
:1054100000F8012D28BF20F8022D130030B41446E7
:105420001546103928BF20E93C00FAD8490728BFA3
:1054300020E90C0048BF40F8042D890028BF20F85F
:10544000022D48BF00F8012D30BC7047C91818BFA5
:1054500000F8012DCB0728BF00F8012D7047000090
:105460002DE9F8430400002C01D10120DAE1207875
:10547000C0075FD5DFF8B003016811F00C01042903
:1054800009D0006810F00C0008280ED1DFF89C034A
:105490000068400209D5DFF898030068800349D509
:1054A0006068002846D10120BCE16068B0F5803F0B
:1054B00006D1DFF87C03016851F48031016018E007
:1054C0006068B0F5A02F0AD1DFF86403016851F4D9
:1054D00080210160016851F48031016009E0DFF84A
:1054E0005003016831F480310160016831F480219A
:1054F0000160606800280ED0FFF7DCFB0500DFF8D4
:1055000030030068800315D4FFF7D4FB401B6528E7
:10551000F5D3032086E1FFF7CDFB0500DFF810038C
:105520000068800306D5FFF7C5FB401B6528F5D34F
:10553000032077E1207880074CD5DFF8EC02016882
:1055400011F00C0F08D0006810F00C00082814D1DE
:10555000B6480068400210D4B5480168890704D5F0
:10556000E168012901D001205CE1016831F0F80116
:10557000226951EAC20101602CE0E068002818D0DD
:105580000120AC490860FFF795FB0500A8480168B9
:10559000890706D4FFF78EFB401B0328F6D30320B0
:1055A00040E1016831F0F801226951EAC20101606D
:1055B00010E000209F490860FFF77CFB05009C4835
:1055C0000068800706D5FFF775FB401B0328F6D35C
:1055D000032027E12078000724D56069002810D037
:1055E000012095490860FFF765FB050093480068B6
:1055F000800717D4FFF75EFB401B0328F6D3032078
:1056000010E100208C490860FFF754FB05008B482F
:105610000068800706D5FFF74DFB401B0328F6D333
:105620000320FFE0207840077CD50027DFF81082B8
:10563000D8F80000C0000FD400200090D8F8000077
:1056400050F08050C8F80000D8F8000010F08050EA
:105650000090009801200700DFF8E891D9F80000D9
:10566000C00513D4D9F8000050F48070C9F80000C8
:10567000FFF720FB0500D9F80000C00506D4FFF7AE
:1056800019FB401B0328F6D30320CBE0A0680128B8
:1056900005D16D48016851F00101016015E0A06875
:1056A000052809D16848016851F0040101600168CA
:1056B00051F00101016008E06348016849084900B0
:1056C0000160016831F004010160A06800280FD07A
:1056D000FFF7F0FA05005C480068800718D4FFF770
:1056E000E9FA401B41F289318842F4D3032099E062
:1056F000FFF7E0FA050054480068800708D5FFF777
:10570000D9FA401B41F289318842F4D3032089E061
:105710003800C0B2012805D1D8F8000030F0805020
:10572000C8F80000A06900287BD03F48006810F04E
:105730000C00082849D0A069022835D1DFF80C9167
:105740000020C9F80000FFF7B5FA0700DFF8E08095
:10575000D8F80000800106D5FFF7ACFAC01B03287B
:10576000F4D303205EE0E169206A0143606A51EAF4
:105770008011A06A4008401E51EA0041E06A51EAE7
:1057800000612A4801600120C9F80000FFF792FA81
:105790000500D8F80000800143D4FFF78BFA401BC6
:1057A0000328F6D303203DE0002028490860FFF7D6
:1057B00081FA05001E480068800132D5FFF77AFAA9
:1057C000401B0328F6D303202CE0A069012801D157
:1057D000012027E0154800680600A06901281ED0B6
:1057E00016F48000E169884219D116F03F00216A61
:1057F000884214D147F6C0703040616AB0EB811F17
:105800000DD116F44030A16A4908491EB0EB014F92
:1058100005D116F07060E16AB0EB016F01D0012094
:1058200000E00020BDE8F28308380240043802405E
:105830000038024000004742800E47427438024060
:10584000403802400070004070380240600047421B
:105850002DE9F04104000D00002C01D1012095E05C
:10586000584F386810F00700A84207D23D703868DA
:1058700010F00700A84201D0012087E020788007BF
:1058800016D52078400704D54F48016851F4E051FF
:1058900001602078000704D54B48016851F460414D
:1058A000016049490A6832F0F002A06802430A60C8
:1058B0002078C00738D56068012805D143480068C2
:1058C000800313D4012061E06068022802D0606880
:1058D000032805D13D480068800107D4012055E028
:1058E0003A480068800701D401204FE0DFF8D880F3
:1058F000D8F800108908890060680143C8F80010D2
:10590000FFF7D8F90600D8F8000010F00C00616825
:10591000B0EB810F08D0FFF7CDF9801B41F2893140
:105920008842F0D3032031E0386810F00700854248
:1059300007D23D70386810F00700A84201D001205E
:1059400024E02078400706D51F490A6832F4E05267
:10595000E06802430A602078000707D51A4801680A
:1059600031F46041226951EAC201016001F076FC24
:105970001749154A1268C2F30312895CC8401549D9
:1059800008601548006800F0FFFC0020BDE8F081C9
:1059900010480068704780B5FFF7FAFF0F490A4AC0
:1059A0001268C2F38222895CC84002BD80B5FFF74D
:1059B000EFFF0A49044A1268C2F34232895CC840C8
:1059C00002BD0000003C024008380240003802409E
:1059D000987602080801002004010020C076020821
:1059E00070B504000126002C01D101204DE0607F3C
:1059F000002804D100202077200000F00EFA0220B9
:105A00006077CA20216848625320216848622000DC
:105A100000F059F805002800C0B200281ED1206807
:105A20008168DFF868000140206881602068816833
:105A30006068014320690143606901432068816017
:105A4000E0682168086120680069A16850EA0140A7
:105A500021680861200000F05EF805002800C0B24F
:105A600000280DD12068006C30F480202168086483
:105A70002068016CA06901432068016401206077FF
:105A8000FF20216848622800C0B270BDBFFF8FFFB1
:105A900070B5040000252068C06830F0A0002168BF
:105AA000C860FFF707F906002068C068800608D4C0
:105AB000FFF700F9801B40F2E9318842F4D303205C
:105AC00000E0002070BD70B50400002500262068AD
:105AD000C06840061CD42068C06850F0800021686F
