:020000040800F2
:1040000010100020BD9D0008319B0008359B000862
:1040100000000000000000000000000000000000A0
:10402000000000000000000000000000399B0008B4
:1040300000000000000000003B9B00083D9B0008C2
:104040007F690008DB6900081F7A0008AF7B000861
:10405000B37B0008DB9900082F9B00084F9D0008E8
:104060005B9D0008B99D0008059E0008079E00089A
:10407000099E00080B9E00080D9E00080F9E000878
:10408000119E0008139E0008159E0008179E000848
:10409000199E00081B9E00081D9E00081F9E000818
:1040A000219E0008239E0008259E00089B9B000877
:1040B000A59B0008AF9B0008279E000810B50400D0
:1040C000002C01D101203FE0A0690028FFD1882009
:1040D0002058002805D1002084216054200001F0E0
:1040E0006DFC2420882160502068006801218843ED
:1040F00021680860A06A002802D0200000F04CFC73
:10410000200000F09DFAC0B2012801D1012000E09A
:104110000020C0B2002801D0012015E020684068CE
:104120000A49014020684160206880682A2188434C
:1041300021688860206800680121014320680160CF
:10414000200000F09DFCC0B210BD0000FFB7FFFFD3
:1041500030B5030088201858202859D1002903D0F1
:10416000100080B2002801D1012052E080204001DF
:104170009C68844207D11C69002C04D10C00E40720
:1041800001D5012045E0196554241A5356241A53C9
:1041900000249C6790255C51212488255C515C6E2D
:1041A0008025AD05AC4219D19C68844205D11869BF
:1041B000002802D13648986701E036489867EFF347
:1041C0001080012484F310881C68A46880252D04C5
:1041D00025431C68A56080F3108817E09C68844222
:1041E00005D11869002802D12B48986701E02B48B7
:1041F0009867EFF31080012484F310881C6824680A
:10420000802525431C68256080F31088002000E08D
:10421000022030BD70B504000D0016008C2020581F
:10422000202833D1002D03D0300080B2002801D1E6
:1042300001202CE0A06880214901884207D1206933
:10424000002804D12800C00701D501201FE000206C
:10425000E06620681249884211D020684068000258
:104260000DD5EFF31080012181F3108821680968D2
:104270008022D2040A4321680A6080F31088320049
:1042800092B22900200000F0D7FC00E0022070BDAF
:104290007F4F0008034F00089B4E0008394E00086E
:1042A00000800040FEB504002068C76920680568EA
:1042B0002068806800909E4838400290029800284C
:1042C0000FD1202007420CD02840002802D10098AE
:1042D000C00006D5606F002802D02000616F8847BB
:1042E000A5E10298002800D1B0E092480099014071
:1042F000002904D190492940002900D1A6E03900C5
:10430000C90709D5E90507D5012122681162902264
:10431000A25811439022A15002210F420AD0009AC4
:10432000D20707D5226811629022A25804231343B2
:104330009022A3500422174209D0009BDB0706D528
:1043400023681A629022A25811439022A15008219A
:104350000F420CD0AA0603D4009A1040002806D0C1
:104360002068016290202058014390202150802035
:104370000001074209D0690107D521680862902031
:1043800020582021014390202150902020580028BF
:104390005BD0202007420BD02840002802D1009893
:1043A000C00005D5606F002802D02000616F8847EB
:1043B00090202058019040262068806830400028D6
:1043C00004D1019828210140002938D0200000F0B4
:1043D000E5FC206880680640002E2CD0EFF31080AA
:1043E000012181F310882168896840229143226865
:1043F000916080F3108880202058002817D08C48C6
:104400008021615888638020205801F030FCC0B2C0
:10441000002801D0012000E00020C0B2002814D004
:104420008020205880216158896B88470DE020004A
:1044300001F056FD09E0200001F052FD05E02000EA
:1044400001F04EFD002090216050F0E0E06E012868
:1044500000D0B5E01020074200D1B1E0054200D104
:10446000AEE02168086220688068400666D580203A
:10447000205800684668300080B2002856D03000CE
:104480005C21615A80B2884250D25E2026522020A0
:104490008021615809680968014000293BD1EFF388
:1044A0001081012282F3108822681268614B134048
:1044B0002268136081F31088EFF31081012282F3E8
:1044C00010882268926801239A4323689A6081F3D6
:1044D0001088EFF31081012282F31088226892681D
:1044E00040239A4323689A6081F310888C2160509E
:1044F0000020E066EFF31080012181F3108821682D
:104500000968102291432268116080F3108880208E
:10451000205801F069FB022020675C20205A5E21B0
:10452000615A411A89B2200001F01CFD7FE000BFF2
:104530000F08000001000010200100045C20205A38
:104540005E21615A461A5E20205A002837D030007A
:1045500080B2002833D0EFF31080012181F310885E
:1045600021680968344A0A4021680A6080F310888B
:10457000EFF31080012181F31088216889682F4AA8
:104580000A4021688A6080F3108820208C216050C6
:104590000020E0666067EFF31080012181F310884E
:1045A00021680968102291432268116080F3108805
:1045B00002202067310089B2200001F0D3FC36E0F0
:1045C00080204003074208D00099490205D52168A0
:1045D0000862200001F0C7FC29E0802007420CD0CF
:1045E0002840002802D10098000206D5A06F0028BC
:1045F00002D02000A16F884719E04020074206D072
:104600002840002803D0200000F0FAFC0FE0380218
:1046100005D5680003D5200001F0A6FC07E0F801ED
:1046200005D5002D03D5200001F09FFCFFE7F7BD65
:10463000214E0008FFFEFFFFDFFEFFFFFEFFFFEF42
:10464000F8B584B006000027380069460870AE4807
:1046500031688142FFD0B2683169114372690A43FF
:10466000F169114332681268A84B13400B4332685A
:10467000136032685268A64B1340F2681A433368DD
:104680005A60B26903923268824203D00399326A57
:104690000A430392316889689E4A0A40039911438C
:1046A000326891603168C96A0F229143726A0A4385
:1046B0003168CA623168B34A914215D1B24909687A
:1046C0008907890F002905D0022905D006D30329BF
:1046D00006D007E03C0050E002244EE004244CE009
:1046E00008244AE0102448E03168A84A914216D1D3
:1046F000A54909680C220A40002A06D0042A08D0DD
:10470000082A04D00C2A06D007E03C0035E0022439
:1047100033E0042431E008242FE010242DE0316838
:104720009B4A914201D13C0027E03168994A91426D
:1047300001D13C0021E0316881421DD192490968D4
:10474000C02212010A40002A0CD08021C9008A42EE
:104750000CD0802109018A4206D0C02109018A4279
:1047600006D007E03C0008E0022406E0042404E050
:10477000082402E0102400E010243168814264D152
:104780002000C0B2002806D0022808D0042808D093
:1047900008280AD00CE001F0FEFF05000CE0B64D41
:1047A0000AE001F09BFF050006E080252D0203E0F2
:1047B0003D00012069460870002D00D1D6E0280098
:1047C000AE49726A02235A43895A02F02AF80290CB
:1047D0000298716803225143884206D37068802191
:1047E000490148430299884203D201206946087072
:1047F000BCE02800A149726A02235A43895A02F098
:1048000010F8002180225200002302F061F802001B
:104810000B0070684008002180185941726800231D
:1048200002F06FF801900198C0218900884208D3F6
:10483000019880214903884203D201983168C860F9
:1048400094E001206946087090E080252D02F0690F
:10485000A84247D12000C0B2002806D0022808D0C4
:10486000042808D008280AD00AE001F094FF0500C7
:104870000AE0814D08E001F031FF050004E003E0AB
:104880003D00012069460870002D6FD028007B494B
:10489000726A02235A43895A01F0C3FF0221484336
:1048A000716849084018716801F0BBFF01900198D8
:1048B000102813D301988021490288420ED2019911
:1048C000A9480840019949084907490F014368462A
:1048D0004180684640883168C86047E001206946E9
:1048E000087043E02000C0B2002806D0022808D09B
:1048F000042811D0082813D013E001F04CFF050064
:1049000013E05D4D11E000BF00800040F369FFCF70
:10491000FFCFFFFFFFF4FF1101F0E0FE050004E010
:1049200003E03D00012069460870002D1ED02800DC
:104930005249726A02235A43895A01F072FF716820
:1049400049084018716801F06CFF01900198102827
:1049500009D3019880214902884204D2019880B28B
:104960003168C86002E001206946087001206A21B0
:104970007052682170527767B7676846007805B053
:10498000F0BD00BF00380140541002400044004018
:1049900000480040004C004000B52821415C090758
:1049A00007D501684968714A0A40816B1143026862
:1049B00051602821415CC90707D5016849686C4AE4
:1049C0000A40C16A1143026851602821415C89078D
:1049D00007D501684968674A0A40016B11430268BC
:1049E00051602821415C490707D501684968624A3E
:1049F0000A40416B1143026851602821415CC9069D
:104A000007D5016889685D4A0A40C16B1143026895
:104A100091602821415C890607D501688968584A58
:104A20000A40016C1143026891602821415C4906EB
:104A300014D501684968534A0A40416C1143026821
:104A40005160416C80225203914207D1016849684C
:104A50004D4A0A40816C1143026851602821415C33
:104A6000090607D501684968484A0A40C16C1143E4
:104A70000268516000BD00000024F4008C9D000815
:104A80007CB50500002490202C5001F079FF060031
:104A900028680068000725D5BE4800903300002232
:104AA00080218903280000F073F8C0B2002801D0EB
:104AB000012000E02000C0B2002813D0EFF31080E6
:104AC000012181F3108829680968802291432A68AE
:104AD000116080F3108820208821685084202C5495
:104AE000032040E028680068400732D5A9480090BC
:104AF000330000228021C903280000F049F8C0B229
:104B0000002801D0012000E02000C0B2002820D001
:104B1000EFF31080012181F31088296809689E4A0B
:104B20000A4029680A6080F31088EFF310800121A1
:104B300081F3108829688968012291432A6891606D
:104B400080F3108820208C21685084202C5403206E
:104B500009E02020882168508C216850EC662C6781
:104B600084202C54002076BDF0FF0000FF7FFFFF63
:104B7000FFFFFDFFFFFFFEFFFFFFFBFFFFEFFFFF5C
:104B8000FFDFFFFFFFFFEFFFFFFF9FFFFFFFF7FFCD
:104B9000FEB504000F00089D2068C0693840B84287
:104BA00001D1012000E0002069460979884241D105
:104BB0000020C0438542EFD001F0E2FE0299401A86
:104BC000854201D3002D01D1012000E00020C0B2B8
:104BD000002801D003202EE0206800684007DBD5C4
:104BE000802FD9D0402FD7D008262068C069304008
:104BF00000280BD020680662200000F0CFF890203B
:104C00002650002084216054012014E080200001FF
:104C10002168C96901400029BED0216808622000CE
:104C200000F0BCF8202090216050002084216054C6
:104C3000032000E00020FEBD70B5030099655C20F4
:104C40001A525E201A5200205867802464019D6821
:104C5000A5420AD11D69002D03D16A4D60269D53DE
:104C600024E0FF2560269D5320E09D68002D0AD199
:104C70001D69002D03D1FF2560269D5316E07F2579
:104C800060269D5312E09D6880267605B5420AD1C4
:104C90001D69002D03D17F2560269D5306E03F2529
:104CA00060269D5302E0050060269D5390255851D3
:104CB00022208C255851EFF31080012585F31088B0
:104CC0001D68AD6801262E431D68AE6080F3108814
:104CD000586E8025AD05A84230D1100068255D5B77
:104CE00080B2A8422AD39868A04205D1186900284A
:104CF00002D14548586701E04448586718690028C0
:104D00000DD0EFF31080012484F310881C68246810
:104D100080256D0025431C68256080F31088EFF323
:104D20001080012484F310881C68A46880256D0518
:104D300025431C68A56080F3108829E09868A0428C
:104D400005D11869002802D13148586701E031487F
:104D50005867186900280ED0EFF31080012484F3FF
:104D600010881C68246890256D0025431C68256008
:104D700080F310880CE0EFF31080012484F3108896
:104D80001C682468202525431C68256080F3108852
:104D9000002070BDFFFFFF01DFFEFFFF00B5EFF356
:104DA0001081012282F31088026812681A4B1340A6
:104DB0000268136081F31088EFF31081012282F3FF
:104DC000108802689268154B13400268936081F363
:104DD0001088C16E01290CD1EFF31081012282F3FA
:104DE00010880268126810239A4303681A6081F3DE
:104DF000108820218C2281500021C166416700BDAE
:104E000000000000FF010000215400082D5200089E
:104E10002751000831500008DFFEFFFFFEFFFFEFC3
:104E200038B50400A56A00205E21685256216852F8
:104E3000280001F055F831BD00B5882141582129DD
:104E40002AD15621415A00291AD1EFF310810122AB
:104E500082F310880268126880239A4303681A60FC
:104E600081F31088EFF31081012282F31088026829
:104E70001268402313430268136081F310880BE02B
:104E8000016D097802689162016D491C0165562126
:104E9000415A491E5622815200BD10B588228258BF
:104EA000212A2DD15622825A002A1AD1EFF31082DC
:104EB000012383F3108803681B688024A3430468DC
:104EC000236082F31088EFF31082012383F31088AC
:104ED00003681B6840241C4303681C6082F310882D
:104EE0000EE0026D11000A88D205D20D03689A62A5
:104EF000026D921C02655622825A521E5623C252DD
:104F000010BD10B588228258212A37D16A22825AD0
:104F100011000A0092B2002A30D05622825A002A8A
:104F20001AD1EFF31082012383F3108803689B6882
:104F3000BB4C1C4003689C6082F31088EFF3108226
:104F4000012383F3108803681B6840241C43036813
:104F50001C6082F3108811E00268D26912060BD53A
:104F6000026D127803689A62026D521C0265562225
:104F7000825A521E5623C252491ECAE710BD30B58E
:104F80008823C358212B3AD16A23C35A1A0013002D
:104F90009BB2002B33D05623C35A002B1AD1EFF308
:104FA0001083012484F310880468A4689C4D254074
:104FB0000468A56083F31088EFF31083012484F361
:104FC000108804682468402525430468256083F31D
:104FD000108814E00368DB691B060ED5036D190009
:104FE0000B88DB05DB0D0468A362036D9B1C036566
:104FF0005623C35A5B1E56240353521EC7E730BDC7
:1050000010B50400EFF31080012181F310882168AE
:105010000968402291432268116080F310882020A3
:10502000882160500020A067200000F06DFE10BDB8
:1050300070B504006020255A8C20205822286BD19E
:105040002068406A0600300029000140A06D017010
:10505000A06D401CA0655E20205A401E5E2160525B
:105060005E20205A00285DD1EFF31080012181F3EA
:105070001088216809686B4A0A4021680A6080F339
:105080001088EFF31080012181F31088216889686E
:10509000012291432268916080F3108820208C21A6
:1050A000605000206067206721685F4A914210D0FD
:1050B0002168496809020CD5EFF31081012282F3BF
:1050C000108822681268D54B13402268136081F360
:1050D0001088E16E01291BD1E066EFF310800121F9
:1050E00081F31088216809681022914322681160B9
:1050F00080F3108810202168C9690140002901D07F
:10510000216808625C20215A200000F02BFF09E092
:10511000200000F00BFE05E02068806908210143B3
:105120002068816170BDF8B504006020255A8C208C
:10513000205822286BD12068406A0600A06D070025
:10514000280030403880A06D801CA0655E20205A69
:10515000401E5E2160525E20205A00285DD1EFF390
:105160001080012181F31088216809682D4A0A40C6
:1051700021680A6080F31088EFF31080012181F329
:10518000108821688968012291432268916080F328
:10519000108820208C2160500020606720672168E3
:1051A000214A914210D02168496809020CD5EFF3D9
:1051B0001081012282F3108822681268974B1340F5
:1051C0002268136081F31088E16E01291BD1E0662B
:1051D000EFF31080012181F3108821680968102203
:1051E00091432268116080F3108810202168C969FA
:1051F0000140002901D0216808625C20215A20006A
:1052000000F0B0FE09E0200000F090FD05E020680D
:1052100080690821014320688161F1BD0000000020
:10522000FFFF7FFFDFFEFFFF00800040FEB50400B0
:105230006020205A6946C8802068C56920680768D0
:105240002068806802908C202058222800D0DEE060
:105250006820205A6946488068464088002800D166
:10526000AAE02026354200D1A6E02068406A6946BF
:105270008880684680886946C9880140A06D0170B1
:10528000A06D401CA0655E20205A401E5E21605229
:105290002068C06905006807400F002831D0280049
:1052A000C00709D5F80507D50120216808629021BB
:1052B0006158084390216050022005420AD00299AB
:1052C000C90707D5216808629021615804220A4362
:1052D0009021625004210D4209D0029AD20706D5CE
:1052E00022681162902161580843902160509020FB
:1052F0002058002805D0200000F0F2FD0020902169
:1053000060505E20205A0028A6D1EFF310800121C2
:1053100081F3108821680968BF4A0A4021680A6041
:1053200080F31088EFF31080012181F31088216849
:105330008968BA4A0A4021688A6080F310888C2004
:1053400026500020606720672168B54A914210D03E
:105350002168496809020CD5EFF31081012282F31C
:105360001088226812682D4B13402268136081F365
:105370001088E16E01291BD1E066EFF31080012156
:1053800081F3108821680968102291432268116016
:1053900080F3108810202168C9690140002901D0DC
:1053A000216808625C20215A200000F0DBFD53E7F1
:1053B000200000F0BBFC4FE75E20205A69460880C1
:1053C00068460088002828D0684600886821615A0D
:1053D000884222D2EFF31080012181F310882168E6
:1053E0008968904A0A4021688A6080F310888E4854
:1053F0006067EFF31080012181F31088216809684C
:1054000020220A4321680A6080F3108805E02068A2
:1054100080690821014320688161F7BDFFFFFFFB20
:10542000F8B584B004006020205A6946C88020681E
:10543000C569206807682068806802908C20205821
:10544000222800D0E0E06820205A6946488068465B
:105450004088002800D1ACE02026354200D1A8E0E9
:105460002068406A69468880A06D039068468088FD
:105470006946C988014003980180A06D801CA06521
:105480005E20205A401E5E2160522068C0690500DF
:105490006807400F002831D02800C00709D5F8055B
:1054A00007D50120216808629021615808439021A6
:1054B0006050022005420AD00299C90707D5216829
:1054C00008629021615804220A439021625004210D
:1054D0000D4209D0029AD20706D5226811629021A6
:1054E000615808439021605090202058002805D032
:1054F000200000F0F5FC0020902160505E20205A32
:105500000028A4D1EFF31080012181F310882168D5
:105510000968414A0A4021680A6080F31088EFF365
:105520001080012181F31088216889683B4A0A4074
:1055300021688A6080F310888C20265000206067E4
:1055400020672168364A914210D0216849680902D3
:105550000CD5EFF31081012282F3108822681268C3
:10556000324B13402268136081F31088E16E0129E9
:105570001BD1E066EFF31080012181F310882168D0
:105580000968102291432268116080F3108810206E
:105590002168C9690140002901D0216808625C20A6
:1055A000215A200000F0DEFC51E7200000F0BEFB95
:1055B0004DE75E20205A694608806846008800282A
:1055C00028D0684600886821615A884222D2EFF3C9
:1055D0001080012181F3108821688968114A0A40EE
:1055E00021688A6080F3108811486067EFF31080AB
:1055F000012181F310882168096820220A4321686B
:105600000A6080F3108805E0206880690821014362
:105610002068816105B0F0BDFFFEFFFFFEFFFFEFD8
:1056200000800040FFFFFFEF31500008FFFFFFFB4D
:105630002751000881B001206F490A6802430A60BF
:1056400009680840009000988020400597490A6842
:1056500002430A60096808400090009801B0704752
:1056600010B586B004001421002201A801F08EF9C3
:105670002068624988421DD1802040035E490A6843
:1056800002430A6009680840009000980120884998
:105690000A6802430A600968084000900098602088
:1056A0000190032002900020039001A9A020C005D2
:1056B00001F094F906B010BD10B586B004001421B5
:1056C000002201A801F062F920687A4988421DD1C0
:1056D0008020800575490A6802430A60096808400D
:1056E000009000980120AE490A6802430A600968E8
:1056F00008400090009810200190032002900020A4
:10570000039001A9A020C00501F068F906B010BD02
:1057100030B593B004001421002201A801F036F93D
:105720003421002206A801F031F92068624988423C
:1057300032D12020069000250A9506A801F06EFAC5
:10574000C0B2002801D0012000E02800C0B200282B
:1057500001D002F061F9022055490A6802430A604B
:105760000968084000900098C02080000190122035
:1057700002900120039004950620059001A9894814
:1057800001F02CF98020800348490A6802430A602E
:10579000096808400090009813B030BD10B586B07D
:1057A00004001421002201A801F0F0F820687E49CD
:1057B00088421ED18020C0013C490A6802430A6029
:1057C0000968084000900098022039490A6802439D
:1057D0000A600968014000910099E02109020191E5
:1057E0000290002003900490059001A96D4801F0FB
:1057F000F5F806B010BD0000401002400024014042
:1058000038B58EB004003421002201A801F0BEF8A2
:105810002068664988421CD18020800301900025C1
:105820000B9501A801F0FAF9C0B2002801D00125BA
:10583000FFE7EDB2002D01D002F0EEF88021090162
:105840005B4802680A4302600068014000910098CA
:105850002AE020688021C905884209D10121134826
:1058600002680A43026000680140009100981BE052
:1058700020685049884209D102210C4802680A4335
:10588000026000680140009100980DE020684A49DC
:10589000884209D180210902454802680A43026012
:1058A00000680140009100980FB030BD3C100240EC
:1058B00034100240007400400054004010B586B01F
:1058C000040014210022684601F060F8206837497E
:1058D000884217D10121324802680A4302600068F9
:1058E000014005910598C0208000009002200190A1
:1058F00000210291039104906946A020C00501F0A7
:105900006DF84BE020688021C905884215D104213B
:10591000234802680A430260006801400591059827
:10592000C020009002200190002102910391049078
:105930006946A44801F052F830E020681D498842C9
:1059400015D10221164802680A4302600068084027
:10595000059005983020009001910020029003905E
:105960000120049069469A4801F038F816E0206852
:105970001149884212D10221094802680A43026093
:105980000068084005900598009101910020029060
:105990000390049069468E4801F020F806B010BDCF
:1059A000341002400004005000380040002C014038
:1059B000401002400004004000200040F1B594B0C7
:1059C00014210022684600F0E1FF3421002206A8DD
:1059D00000F0DCFF149800687E49884235D101242C
:1059E00006940025079506A801F018F9C0B2002812
:1059F00000D12C00E4B2002C01D002F00DF8802080
:105A0000C00172490A6802430A60096808400590AB
:105A10000598022070490A6802430A60096801403B
:105A200005910599C0210091019002950395049577
:105A30006946674800F0D2FF002200211B2002F0D7
:105A40005AF81B2002F061F8BAE014980068634924
:105A5000884243D1022606960025089506A801F043
:105A6000DDF8C0B2002801D0012000E02800C0B25B
:105A7000002801D001F0D0FF80218902524802683D
:105A80000A430260006801400591059852480124CC
:105A900001682143016000682040059005980420BA
:105AA00000900196029503950494A027FF0569468E
:105AB000380000F093FF08200090019602940395AF
:105AC00004946946380000F089FF002200211C2060
:105AD00002F011F81C2002F018F871E01498006828
:105AE0003F49884235D18021C902374802680A43BC
:105AF000026000680140059105980225364801685A
:105B00002943016000682840059005988020C00066
:105B100000900195002402940394042604962C4FCF
:105B20006946380000F05AFF80200001009001957E
:105B300001200290039404966946380000F04EFF5D
:105B4000002200211D2001F0D6FF1D2001F0DDFF05
:105B500036E0149800682349884231D18021090336
:105B6000194802680A4302600068014005910598DF
:105B70001948012401682143016000682040059014
:105B800005980094022501950026029603960427A5
:105B900004976946A020C00500F020FF00950195FC
:105BA0000294039604976946A020C00500F016FFF2
:105BB000002200211D2001F09EFF1D2001F0A5FF05
:105BC00015B0F0BD000800503C10024040100240EB
:105BD00000040050003801403410024000440040EE
:105BE00000480040004C004070B50100002901D180
:105BF00001203BE02520085C022806D00420C86371
:105C0000002024228854012030E0086800680E2219
:105C100090430A6810603B484A6C126802404B6C23
:105C20001A600A68126801239A430B681A600122FD
:105C3000334B1C6840254D5D1C262E401500B54099
:105C400025431D60CB6C8C6C63600B6D002B07D003
:105C50000B6D1B6818400B6D1860886D4B6D58609C
:105C600025200A54002024228854002070BDF8B555
:105C70000400002005002521615C022904D00420D5
:105C8000E0630120050036E0216809680E22914397
:105C9000226811602168096801229143226811601D
:105CA0001849626C12680A40636C1A600122144B36
:105CB0001E68B4464026A75D1C263E401700B7402C
:105CC000664637431F60E36CA66C7360236D002B40
:105CD00007D0236D1B681940236D1960A16D636D9A
:105CE00059602521625424216054A06B002802D001
:105CF0002000A16B88472800C0B2F2BD0000000060
:105D000004000240FFFEFFFF10B504002068854933
:105D100088420AD100220821834800F054FF8348BA
:105D20000178FD220A400270FFE710BDF8B50600B9
:105D300000246846048030687A49884200D092E0A6
:105D40007B4D012229003000FEF764FA28787E2876
:105D500063D178488021890041180A88052A4CDBE4
:105D6000724A1378FE271F4017704378A02B02D089
:105D70004378872B3FD12B780D8843550B885B1CCC
:105D80000B806D4B1D880F88C719FF1E3F78ED1BD8
:105D90001D801D880F88C719BF1E3F78ED1B1D8011
:105DA0001D88664F6F401F808578AD07AD0F002DB1
:105DB00003D1C5782D026F463D806D462D88077949
:105DC0003D436F463D800D886F463F880837BD4292
:105DD00011D10D884519ED1E2D782D020F88C0199F
:105DE000801E007805431888ADB2854203D1107833
:105DF0000423034313700C8071E04C4A137801278D
:105E00001F4317704D4A4C4B1A800C802A780B8820
:105E1000C2540888401C088061E044480078C007EC
:105E20005DD528787D2803D120204549087056E0AB
:105E3000404B80208000181801888122D2009142B6
:105E40004DDA3F492A780F78574002889F540288DC
:105E5000521C0280384802882B780D785D40521918
:105E600002800C703BE030683649884237D1304DB3
:105E7000012229003000FEF7CDF93348018C0029BA
:105E800004D129785A2901D0047028E02978028C9D
:105E9000815401002031028C521C0A80028C0E2A8F
:105EA00010D1027BCC2A0DD1427B332A0AD10122A8
:105EB000264B1A70220002702200027322004273E5
:105EC0000C800CE0028C0E2A09DB22001F4B1A709A
:105ED0002200027022000273220042730C80F1BD86
:105EE00010B5040020680F4988420DD100201849E0
:105EF00008800E480178FE220A40027001220C49F7
:105F00001448FEF787F90BE020681349884207D14F
:105F1000012207491148FEF77DF900201049087059
:105F200010BD000000380140000400500B0C0020A0
:105F30000A0C0020E4040020F80B0020FFFF000002
:105F4000090C002000480040840B0020030C0020B6
:105F5000E4060020E8060020004400407C07002002
:105F6000080C00207047704770477047024801686E
:105F7000E020C0010840704708100240F8B584B026
:105F80000500002D01D10120B7E20124286820403E
:105F9000002868D0A1480068382101400291A0483B
:105FA00000688007800F01900298102802D10198A4
:105FB000032802D00298082808D19A480068800374
:105FC00051D5686800284ED1012096E28020400219
:105FD0006968814204D193490A681043086017E058
:105FE0006968A022D202914209D18E490A688023B1
:105FF000DB0213430B600A681043086008E089481D
:106000000168BB4A0A4002600168BA4A0A4002605D
:106010006868002813D000F0B3FC060081480068CF
:10602000800320D400F0ACFC801B652801D3200045
:1060300000E00020C0B20028F0D003205DE200F0B4
:106040009FFC06007748006880030CD500F098FCA0
:10605000801B652801D3200000E00020C0B200288A
:10606000F0D0032049E2022728683840002800D1F8
:106070008FE06A4800683821014002916848006852
:106080008007800F01900298102802D10198022801
:1060900002D00298002833D162490868400504D52F
:1060A000E868002801D1012027E2AC480268AC4B27
:1060B00013406A6912021A4302600298002810D144
:1060C0000868A84A0240286910430860A648096881
:1060D000C90A4A07520F2100914000F0A2FBA349D0
:1060E0000860A348006801F029FDC0B2002801D073
:1060F000200000E00020C0B200284AD00120FCE1CE
:10610000E86800282BD04748006896490140286974
:10611000084344490860434800688021490001431E
:106120004048016000F02CFC06003E480068400535
:106130000CD400F025FC801B032801D3200000E0D4
:106140000020C0B20028F0D00320D6E183480168C7
:10615000834A0A40696909021143016019E0314824
:106160000068844901402F48016000F009FC0600E6
:106170002C48006840050CD500F002FC801B032869
:1061800001D3200000E00020C0B20028F0D003209E
:10619000B3E1287800074DD5204800683821014038
:1061A000182909D1BA4800683840002842D0A869A7
:1061B00000283FD10120A0E1A869002819D0B448E7
:1061C00000682043B249086000F0DAFB0600B048DE
:1061D0000068384000282DD100F0D2FB801B032836
:1061E00001D3200000E00020C0B20028EFD003203F
:1061F00083E1A748006801218843A549086000F0B1
:10620000BFFB0600A24800683840002812D000F00A
:10621000B7FB801B032807D3200006E008100240CC
:106220000C100240001002400020C0B20028E9D04B
:10623000032062E12878400700D4ACE000206946E2
:106240000870AF4800683821014020290BD1AD48C3
:1062500000680740002F00D19DE0A868002800D00A
:1062600099E0012049E180204005A74909680140E3
:1062700000290AD1A4490A6802430A600968084053
:1062800003900398200069460870A0480068C00584
:106290001AD49E4800688021490001439B48016050
:1062A00000F06EFB060099480068C0050CD400F0B1
:1062B00067FB801B032801D3200000E00020C0B250
:1062C0000028F0D0032018E1A868012804D18D48E7
:1062D00001682143016018E0A86805280CD18948AD
:1062E000016804220A4302600168214301600CE056
:1062F000FFFFFEFFFFFFFBFF824801680122914381
:1063000001600168042291430160A868002815D04B
:1063100000F036FB06007B4800683840002831D189
:1063200000F02EFB801B7A49884201D3200000E058
:106330000020C0B20028EED00320DEE000F020FBF9
:10634000060070480068384000281BD000F018FB99
:10635000801B6F4988420FD320000EE004100240DA
:10636000FF80FFFFFFC7FFFF0024F400C8000020EC
:10637000C4000020FFFEFFFF0020C0B20028E0D0D4
:106380000320BAE068460078012804D15E4801681D
:10639000604A0A400260E869002800D1ACE0584831
:1063A000006838210140102974D0E869022850D1D2
:1063B00059480068594901405748016000F0E0FA27
:1063C00000908027BF0454480068384000280DD052
:1063D00000F0D6FA0099401A032801D3200000E00B
:1063E0000020C0B20028ECD0032086E0B848016845
:1063F0004B4A0A40296A11436A6A0A43A96A090298
:106400001143EA6A0A43296B11436A6B0A4302602B
:1064100041490968802252040A433F490A600168E1
:10642000802252050A43026000F0AAFA06003A48A8
:106430000068384000285FD100F0A2FA801B0328D2
:1064400001D3200000E00020C0B20028EFD00320DC
:1064500053E0314F386831490140396000F090FA1B
:106460000600386880010CD500F08AFA801B0328EA
:1064700001D3200000E00020C0B20028F1D00320AA
:106480003BE093480168934A0A40026034E000BF51
:1064900060100240E869012801D101202DE08C48FC
:1064A0000068019001988007800F296A884221D1F5
:1064B000019870210140686A81421BD10198FE2138
:1064C000C9010140A86A0002814213D10198F82154
:1064D00089030140E86A81420CD10198E021090555
:1064E0000140286B814205D10198400F4007696B3C
:1064F000884201D0012000E0002005B0F0BD00007E
:10650000081002405C1002403C1002400070004045
:1065100089130000FFFFFFEF00100240FFFFFFFEA6
:106520008C80C111F3B581B00400002C01D1012091
:10653000CCE00725684E30682840029988421CD27A
:1065400030680721884302990143316000F018FA4E
:10655000009030682840029988420ED000F010FA6E
:106560000099401A9449884201D3012000E000209C
:10657000C0B20028EDD00320A8E00220216801402D
:1065800000290FD02178490705D58C490A68E023F6
:10659000DB0113430B6089490A68894B1340A268E9
:1065A0001A430A6001272168394000294DD06168EB
:1065B000012905D183480068800324D4012085E0A7
:1065C0006168022905D17F48006880011BD4012041
:1065D0007CE06168002905D17A480068400512D442
:1065E000012073E06168032906D1774909680840F2
:1065F000002808D1012069E0744909680840002892
:1066000001D1012062E06D4800680721884361687C
:1066100001436A48016000F0B3F9009067480068E0
:10662000382101406068C00081420ED000F0A8F916
:106630000099401A6049884201D3380000E00020E8
:10664000C0B20028EAD0032040E002983168294017
:1066500088421CD230680721884302990143316087
:1066600000F08EF9009030682840029988420ED0E0
:1066700000F086F90099401A4F49884201D338004A
:1066800000E00020C0B20028EDD003201EE02078FA
:10669000400706D5494801684D4A0A40E168114360
:1066A000016000F01BF84B49444A1268120A1207B5
:1066B000120F04235A43895CC906C90EC8404649D3
:1066C00008604648006801F039FAC0B2FEBD00001B
:1066D0000C100240FCFFFEEE00200240FCB538200A
:1066E00036490A680240002A0CD101203549096860
:1066F000C90A4907490F884006003948310000F0AF
:1067000090F844E00A680240082A01D135483EE08A
:106710000A680240102A2BD1334F38688007800F57
:106720000190386800094007400F401C050001989F
:1067300003280AD12B48290000F073F83968090AA8
:106740004906490E4843040009E02548290000F0A5
:1067500068F83968090A4906490E48430400386850
:10676000400F401C00902000009900F05AF80EE005
:106770000A680240202A02D18020000207E009684E
:106780000840182802D1FA20C00100E00020F6BD20
:1067900011480068704710B5FFF7FAFF0400FFF7D3
:1067A000E5FB1249000B04225043085CC006C00EF2
:1067B000C440200010BD00008913000008100240F2
:1067C000FFF0FFFF00100240601002405C1002402A
:1067D000FF8FFFFF049C0008C8000020C4000020B9
:1067E0000024F40000127A000C100240049D0008FE
:1067F000F446002804D4494200F013F840426047B0
:106800004042002905D45FD000F00BF840424942D5
:106810006047494200F005F84942604703460B4390
:10682000E6D40022030A8B420BD203098B4219D211
:1068300043088B422ED2411A00D2014652411046E3
:106840007047FF2209023FD012068B4205D3121275
:1068500009028B4201D31212090203098B4219D398
:1068600000E0090AC3098B4201D3CB01C01A52418F
:1068700083098B4201D38B01C01A524143098B42D9
:1068800001D34B01C01A524103098B4201D30B01C2
:10689000C01A5241C3088B4201D3CB00C01A5241E7
:1068A00083088B4201D38B00C01A524143088B42AC
:1068B00001D34B00C01A5241884200D3401A5241C2
:1068C000CFD201461046704708B501F06FF908BDF8
:1068D00030B4434351435D18010C0C00130C5C436E
:1068E0002D1980B2434392B251430024C918644128
:1068F00024040B04090C09195043C018694130BC29
:10690000704712422DD0994231D970B500251B42F3
:1069100009D00C00002112E01100FFF782FF0A00ED
:106920000021002370BD0942F6D000240126491839
:106930006441944200D3A41A7641F8D33100012671
:1069400001E0764109D2001864416D41A41A9D41CD
:10695000F7D2A4185D41B619F5D3300022002B0000
:1069600070BD1B42CFD108B501F022F908BD01D19D
:106970009042CAD202000B00002100207047FEE7BF
:1069800001480068704700BFEC0B00201206130A94
:106990001A43130C1A4300BF094205D0830705D0E0
:1069A0000270401C491EF9D17047000013001039D5
:1069B00006D330B41400150010393CC0FCD230BCF2
:1069C000490700D30CC000D504C0890002D302805F
:1069D000801C002900D502707047FEE7F1B582B037
:1069E00000230868D840002800D1EBE001250868A2
:1069F0002C009C40044001940198002800D1DFE065
:106A0000032648683040012803D0486830400228F7
:106A10001ED1029887681C00022044433000A04029
:106A20008743C86884461C00022044436046A04057
:106A30003843029CA060029C67682C009C40A743DE
:106A40004C6824092C409C403C432200029C62601C
:106A500048683040032812D00298C7681C00022002
:106A600044433000A0408743886884461C000220CD
:106A700044436046A040384302000298C260486820
:106A80003040022821D10298DC0804277C430019F9
:106A9000076A072000970F24A4461F00074004241C
:106AA00067436446BC40009FA743BC460F691C0077
:106AB0002040042460438740604607433A00029820
:106AC000DC0804277C4300190262029807681C0056
:106AD000022044433000A040874348683040844649
:106AE0001C00022044436046A04038430200029844
:106AF00002604868C024A4020440002C60D03F4CCF
:106B0000980804277843205800900F27BC461F00A0
:106B10003000384008277843674687400098B843DC
:106B200000900298A027FF05B84201D1002510E08F
:106B30000298334A90420CD00298324A904201D1D6
:106B4000022506E00298304A904201D1350000E06B
:106B5000052500981A00164008225643B540054303
:106B60009808042250432550284A1068019CA043ED
:106B70004C68E40202D50400019820431060244CC4
:106B80002268019DAA434D68AD0202D51000019A0A
:106B9000024322601F4C2068019DA8434D68AD034D
:106BA00002D502000198104320601B4C2268019D11
:106BB000AA434D68ED0302D51000019A02432260FA
:106BC0005B1C0EE7F7BD00B51300DBB2002B03D052
:106BD0000B009BB2836102E00B009BB2836200BD9D
:106BE00010B442690B009BB213401B040C00A4B20A
:106BF00094431C43846110BC70470000601802403D
:106C00000004005000080050000C00500018024022
:106C1000041802408418024080180240F8B584B07D
:106C2000040000273800694608703800694648703B
:106C30002068800300D483E0380069468870802093
:106C400040058E4D29680140002909D1296801437A
:106C500029602968084003900398012069468870DC
:106C6000874E30688021490001433160FFF788FE7C
:106C700002903068C0050ED4FFF782FE0299401AD8
:106C8000032801D3012000E03800C0B20028F0D072
:106C900003206946087068460078002844D1794E80
:106CA0003068C0218900014001910198002812D06C
:106CB0000198216B88420ED03068734901400191E0
:106CC0003068802149020143316030686F490140DA
:106CD0003160019830600198C00715D5FFF750FE6C
:106CE0000290306880070FD4FFF74AFE0299401ADD
:106CF0006749884201D3012000E03800C0B2002873
:106D0000EFD003206946087068460078002806D155
:106D100030685D490140206B0843306008E06846F8
:106D200000786946487003E0684600786946487014
:106D300068468078012803D12868564901402960B7
:106D40002078C00706D55448016803229143626841
:106D50000A4302602078800706D54F4801680C225C
:106D60009143A2680A4302602078C00606D54A48CB
:106D700001684A4A0A40E1681143016020688005C1
:106D800006D545480168464A0A40A1691143016099
:106D90002068400506D540480168424A0A40E1693A
:106DA000114301602078800606D53B4801683E4AC1
:106DB0000A402169114301608021C901206808400F
:106DC000002811D03448026892009208236A1343C5
:106DD0000360206A8022D205904205D133480268C0
:106DE00080235B02134303602068000306D52A4812
:106DF000026840239A43636A134303602068800259
:106E000011D5254802682A4B1340A26A1A43026032
:106E1000A06A8022D203904205D1244802688023D0
:106E20005B0413430360206840020FD51A480268D0
:106E3000204B1340E26A1A43026080225204E06A47
:106E4000904203D1194803681A4302602068000584
:106E50000FD511480268184B134062691A4302604B
:106E60006069884205D111480168802252020A43B4
:106E700002606846407805B0F0BD00003C1002405A
:106E8000007000405C100240FFFCFFFFFFFFFEFFB0
:106E900089130000FFFFFFEF54100240FFF3FFFFD4
:106EA000FFFFF3FFFFFFCFFFFFCFFFFF0C100240FC
:106EB000FFFFBFFFFFFFFFFEFF3FFFFF00B5BFF378
:106EC0004F8F9F48B7490860BFF34F8F00BFFDE762
:106ED00010B5B54C2088FF21F631884207DB8021B0
:106EE0000902A020C005FFF77BFE0020208010BD16
:106EF000F8B500F05FFE62B600F08AF800F0E4FC3E
:106F000000F0D2F800F0A8F900F0DCF900F098FAEF
:106F100000F0F8FB00F042FC00F090FC00F0B0FC48
:106F200000F054F900F01EFB00F00CF900F0A0FB9B
:106F30009E4F9F48009078789E490880009840783E
:106F40009D4908809D4D9E4E012231002800FDF78D
:106F500061F9202428680068204329680860994D59
:106F6000012231002800FDF755F928680068044324
:106F700028680460FFF7ACFF93480178012920D10D
:106F800000210170AF48C17800291AD1AE490A78B2
:106F900083799A4208D00122AC4B1A70807908702C
:106FA000087800F013FF0CE0A9490A7843799A4267
:106FB00007D00122A74B1A7040790870087800F0BA
:106FC000CDFEB9480178490710D50178FB220A4067
:106FD0000270B64C6078872802D1200000F094FF40
:106FE0006078A02802D1200001F003F9B0480188A0
:106FF000FA225200914203DB0021018000F021FEC1
:10700000AC480068AC498842B4D1FFF757FFB1E7FC
:1070100038B592B038210024220004AD2800FFF7D3
:10702000B5FC102122006D462800FFF7AFFC802040
:10703000800001F015F9022504958020400007909A
:107040000894402009900B950C950D9408200E9003
:10705000802080020F90C020C00410908020800506
:10706000119004A8FEF78AFFC0B2002801D00120C9
:1070700000E02000C0B2002801D000F0CDFC0720C5
:10708000009001950294039402216846FFF74AFAA2
:10709000C0B2002801D00124FFE7E4B2002C01D0E7
:1070A00000F0BAFC13B030BD7FB50C2100242200E3
:1070B0006D462800FFF76AFC804D814828608020DB
:1070C000C0056860AC60EC602C6104206861200041
:1070D0002876200068762000A8760126EE61200040
:1070E000202168546C62AC6220002C2168542C630F
:1070F0006C63AC6320003C216854EC64280001F010
:1071000049F9C0B2002801D0300000E02000C0B230
:10711000002801D000F080FCC34800900194029444
:107120006946280001F092FAC0B2002801D034006C
:10713000FFE7E4B2002C01D000F06EFC7FBD000040
:107140000400FA0530B589B02421002422006D46E0
:107150002800FFF71BFCB54DB5482860280001F05A
:10716000D5FBC0B2002801D0012000E02000C0B251
:10717000002801D000F050FC009401940294039484
:10718000049400226946280001F0D6FBC0B2002812
:1071900001D00124FFE7E4B2002C01D000F03CFC58
:1071A00009B030BD0CED00E0F40B0020F03F00080A
:1071B000F0FF0108F20B0020CC000020E8060020C0
:1071C0000A0C002010080020030C002070B5994C18
:1071D00099482060994860600025A5600126E66016
:1071E00025616561A561E5612562200001F0A4FCCF
:1071F000C0B2002801D0300000E02800C0B2002852
:1072000001D000F009FC0021200001F00BFDC0B20C
:10721000002801D0300000E02800C0B2002801D0D2
:1072200000F0FAFB0021200001F02FFDC0B2002881
:1072300001D03500FFE7EDB2002D01D000F0ECFBEE
:1072400070BD0000840B0020010C0020050C002004
:10725000FF0B0020040C002010B5BD48BD490160A3
:1072600082214900416000248460C0218900C160FE
:1072700004614461802189008161C46104624462C7
:1072800084620721C16204630821416301F032FD79
:10729000C0B2002801D00124FFE7E4B2002C01D0E5
:1072A00000F0BAFB10BD00000B0C0020E40400202D
:1072B000F60B0020C000002055AA5AA5380900206E
:1072C0000024014030B59BB010210024220017ADEE
:1072D0002800FFF75BFB0C2122006D462800FFF71A
:1072E00055FB1C21220003AD2800FFF74FFB342182
:1072F00022000AAD2800FFF749FB974D9748286008
:107300006C60AC609648E8602C616C61AC612800F0
:1073100001F07AFDC0B2002801D0012000E0200079
:10732000C0B2002801D000F077FB80204001179008
:1073300017A9280001F01CFFC0B2002801D00120CD
:1073400000E02000C0B2002801D000F065FB28005A
:1073500001F08CFDC0B2002801D0012000E0200027
:10736000C0B2002801D000F057FB009401940294B1
:107370006946280002F086F9C0B2002801D0012039
:1073800000E02000C0B2002801D000F045FB6020E2
:107390000390049405940694079408940994002299
:1073A00003A9280001F030FEC0B2002801D001205E
:1073B00000E02000C0B2002801D000F02DFB042224
:1073C00003A9280001F020FEC0B2002801D001204E
:1073D00000E02000C0B2002801D000F01DFB0A949C
:1073E0000B940C940D940E94802080010F901094B7
:1073F0001194129480208004139014941594169480
:107400000AA9280002F07CF9C0B2002801D00124AA
:10741000FFE7E4B2002C01D000F0FEFA2800FEF7EE
:107420004DFA1BB030BD000020000014CC0B002032
:1074300000740040000A002000540040B57DB110E7
:1074400038B58EB01021002422000AAD2800FFF7C5
:107450009DFA0C2122006D462800FFF797FA1C21A7
:10746000220003AD2800FFF791FAA54D8020C0054A
:1074700028606C60AC600020C043E8602C61AC61A7
:10748000280001F0C1FCC0B2002801D0012000E0BA
:107490002000C0B2002801D000F0BEFA80204001D8
:1074A0000A900AA9280001F063FEC0B2002801D0AA
:1074B000012000E02000C0B2002801D000F0ACFAAA
:1074C000280001F0D3FCC0B2002801D0012000E068
:1074D0002000C0B2002801D000F09EFA009402946F
:1074E0006946280002F0CEF8C0B2002801D0012081
:1074F00000E02000C0B2002801D000F08DFA60202A
:107500000390049405940794082203A9280001F02D
:107510007BFDC0B2002801D0012000E02000C0B2F5
:10752000002801D000F078FA0C2203A9280001F00D
:107530006BFDC0B2002801D00124FFE7E4B2002CAB
:1075400001D000F069FA2800FEF7B8F90FB030BD9D
:107550009C09002000380040540A0020002C014003
:10756000FFFF000038B58EB01021002422000AADC4
:107570002800FFF70BFA0C2122006D462800FFF7C8
:1075800005FA1C21220003AD2800FFF7FFF9A94DE1
:10759000A94828606C60AC60B848E8602C61AC61B8
:1075A000280001F031FCC0B2002801D0012000E029
:1075B0002000C0B2002801D000F02EFA8020400147
:1075C0000A900AA9280001F0D3FDC0B2002801D01A
:1075D000012000E02000C0B2002801D000F01CFA19
:1075E000280001F043FCC0B2002801D0012000E0D7
:1075F0002000C0B2002801D000F00EFA00940294DE
:107600006946280002F03EF8C0B2002801D00120EF
:1076100000E02000C0B2002801D000F0FDF9602099
:107620000390049405940794002203A9280001F014
:10763000EBFCC0B2002801D0012000E02000C0B265
:10764000002801D000F0E8F9042203A9280001F085
:10765000DBFCC0B2002801D00124FFE7E4B2002C1B
:1076600001D000F0D9F92800FEF728F90FB030BD9D
:1076700030B587B01C21002422006D462800FFF79A
:1076800085F98F4D8F4828606C60AC607B48E8605E
:107690002C61AC61280001F0B7FBC0B2002801D01A
:1076A000012000E02000C0B2002801D000F0B4F9B1
:1076B000280001F0DBFBC0B2002801D0012000E06F
:1076C0002000C0B2002801D000F0A6F96020009090
:1076D00001940294049400226946280001F094FC6D
:1076E000C0B2002801D00124FFE7E4B2002C01D091
:1076F00000F092F92800FEF7E1F807B030BD000075
:10770000A00A002038B5B54CB5482060E120400201
:1077100060600025A560E56025610C206061A561C1
:10772000E56125626562A5622000FCF7C7FCC0B276
:10773000002801D0012000E02800C0B2002801D0BC
:1077400000F06AF90021200002F069F8C0B20028B8
:1077500001D0012000E02800C0B2002801D000F0D4
:107760005BF90021200002F085F8C0B2002801D0AA
:10777000012000E02800C0B2002801D000F04CF940
:10778000200002F029F8C0B2002801D00125FFE74F
:10779000EDB2002D01D000F03FF931BD38B5914C6C
:1077A00091482060E120400260600025A560E5600E
:1077B00025610C206061A561E56125626562A562B5
:1077C0002000FCF77BFCC0B2002801D0012000E0C3
:1077D0002800C0B2002801D000F01EF900212000CE
:1077E00002F01DF8C0B2002801D0012000E02800FE
:1077F000C0B2002801D000F00FF90021200002F0F3
:1078000039F8C0B2002801D0012000E02800C0B241
:10781000002801D000F000F9200001F0DDFFC0B227
:10782000002801D00125FFE7EDB2002D01D000F0C6
:10783000F3F831BDEC0A00200004004010B56B489D
:107840006B490160E1214902416000248460C46009
:1078500004610C2141618461C461046244628462F8
:10786000FCF72CFCC0B2002801D00124FFE7E4B2F1
:10787000002C01D000F0D0F810BD0000FFFF000088
:1078800010B55C485C490160E12149024160002477
:107890008460C46004610C2141618461C46104623C
:1078A00044628462FCF70AFCC0B2002801D00124C3
:1078B000FFE7E4B2002C01D000F0AEF810BD0000EC
:1078C000380B002000200040F8B586B014210024B9
:1078D00022006D462800FFF759F848480168042245
:1078E0000A43026001680422114005910599202194
:1078F00002680A430260026811400591059901255A
:107900000168294301600168294005910599022118
:1079100002680A43026002681140059105990168F6
:1079200008220A4302600068082108400590059873
:10793000002203213248FFF746F9324F0022390076
:10794000A020C005FFF73FF92F4E002231002F483D
:10795000FFF739F9002207212D48FFF734F9E0201D
:10796000000200900194029469462A48FFF736F815
:107970000320009001950294039469462048FFF784
:107980002DF8042000900194029469461C48FFF7EA
:1079900025F800970195029403946946A020C0053C
:1079A000FFF71CF800960195029403946946174866
:1079B000FFF714F807200090019502940394144DEA
:1079C00069462800FFF70AF8082000900194029405
:1079D00069462800FFF702F807B0F0BDE80600206E
:1079E000003801407C0700200044004010080020BF
:1079F00000480040A4080020004C00403410024021
:107A000000140050809C00000D1000000004005085
:107A1000000C00500008005000B572B6FEE7FEE70B
:107A200000B5010049B2002905D40121C206D20ED9
:107A300091403C4A116000BDF0B5020052B2002AEC
:107A40001CD40322384B040064B2A40804256C4300
:107A50001C59FF251600064008277E43B540AC435D
:107A60008D01EDB202400826724395402543020085
:107A700052B29208042462439D5022E00F242B4B03
:107A8000032205006DB22540083DAE0804256E4373
:107A900005006DB22C40083CA40804256C431F5916
:107AA000FF24A44615000540082465436446AC4005
:107AB000A7438C01E4B2024008256A4394403C434A
:107AC0009C51F0BD10B50400601E8021490488421D
:107AD00001D301200EE0601E15490860032100203B
:107AE000C043FFF7A9FF0020124908600720124990
:107AF0000860002010BD70B505000C0016002100C4
:107B0000280040B2FFF798FF70BD10B504002000B8
:107B100040B2FFF785FF10BD10B504002000FFF74D
:107B2000D1FF10BD00E100E000E400E01CED00E04A
:107B300014E000E018E000E010E000E070B506009E
:107B40000024250016490878002823D0FA20800058
:107B50000978FEF766FE010012480068FEF761FE34
:107B6000FFF7DAFF002801D10124FFE7E4B2002C7F
:107B70000DD0042E08D2002231000020C043FFF7B0
:107B8000BAFF0948066007E00120050004E0012073
:107B9000050001E0012005002800C0B270BD00BF53
:107BA000D4000020C8000020C40000207047FEE779
:107BB0007047FEE738B500252C000C48016880228C
:107BC00052000A4302600320FFF7B8FFC0B200284A
:107BD00001D00125FFE7EDB2002D02D00120040005
:107BE00001E0FDF727FD2000C0B232BD00200240B9
:107BF000F6B501000022130015001400102A1FD250
:107C00000120904003000098184005009D4215D1C6
:107C10000F680326BC461700022047433000B840D7
:107C200067468743684600790640B446160002203E
:107C300046436046B040384304000C60521CDDE708
:107C4000F3BD10B5964908002030002213000380D0
:107C5000944B1C78002C20D01A705A220B8CCA54DA
:107C60000A8C521C0280A5220B8CCA540A8C521C0E
:107C7000028005220B8CCA540A8C521C02808A4A4C
:107C800012780B8CCA540A8C521C028033220B8C43
:107C9000CA540A8C521C028052E05A230C8C0B5599
:107CA0000B8C5B1C0380A5230C8C0B550B8C5B1C75
:107CB00003800D230C8C0B550B8C5B1C03800B8CF1
:107CC000CA540A8C521C0280784A12780B8CCA540F
:107CD0000A8C521C0280764A12780B8CCA540A8C89
:107CE000521C0280734A12780B8CCA540A8C521CA4
:107CF0000280714A12780B8CCA540A8C521C028082
:107D000001220B8CCA540A8C521C02806B4A1278D6
:107D10000B8CCA540A8C521C0280694A12780B8C54
:107D2000CA540A8C521C0280CC220B8CCA540A8C76
:107D3000521C028033220B8CCA540A8C521C0280C3
:107D40000A8C6048FCF704FA10BD10B5040022004C
:107D5000D2B201215C48FEF736FF10BD30B50400F9
:107D60005A4805785A4909780078081A2100C9B29A
:107D700048430A2148435A21FEF750FD29180800BC
:107D800080B22200D2B2002A01D100221000474A5C
:107D90001278002A03D12200D2B2002A01D14D4A22
:107DA000106000224C4B1A6030BD01204B49087016
:107DB0004B4908704B484C4908603D4800784B4996
:107DC0000870FA20C0004A490860704710B50400E6
:107DD0000020FFF7C3FF2200D2B201214548FEF781
:107DE000F2FE32480078002801D0FFF7DEFF10BD18
:107DF00038B504002000C0B2002803D015202E4959
:107E0000087002E019202C4908702200D2B28021AB
:107E1000A020C005FEF7D7FE374D2200D2B20421C4
:107E20002800FEF7D0FE2200D2B201212800FEF782
:107E3000CAFE31BD80B50020FFF790FF00202F491A
:107E40000870194908701D4908701D4908701849C3
:107E5000087016490870174908700120BA4908705F
:107E6000FFF7EFFE322001F073FD0020FFF76DFFFA
:107E700001BDE0B5684622490CC90CC00839083874
:107E800068462049097801701C4909780171AF4999
:107E9000097841710621684601F076FD07BD0000B2
:107EA000A80B0020060C0020D1000020000C0020B0
:107EB000FF0B0020010C0020D3000020FD0B002050
:107EC000FE0B00201008002000140050CE000020FF
:107ED000CF0000203804004024040040050C00209E
:107EE000040C00205D7D0008E40B0020070C00203E
:107EF000E80B0020000C005000040050FC0B002098
:107F0000EC9D00080C0C0020F8B5070000252800A7
:107F100069460870FEF734FD8E490860B87880071E
:107F2000800F032800D008E1012420006946087072
:107F3000787889490870F87800280AD001280FD08D
:107F4000022800D1F6E0032800D1CFE0102803D0AA
:107F5000F3E068460470F0E015207D490870ECE01D
:107F60007E4E787930707E48017821403278224008
:107F70004A40002A22D0317822000A40027000785C
:107F800000280DD00120FFF7E0FE70480078FFF7D1
:107F9000E5FE28007349087020006B4908700DE069
:107FA00028007149087020006E4908702000664959
:107FB0000870FFF746FE0020FFF7D0FE6B490878F7
:107FC00020403278521022404240002A1FD0684A96
:107FD0001078002803D067480078002809D030784E
:107FE000C0B24008220002400A700878FFF7EEFE97
:107FF00010E03078FD230340337030780978490071
:1080000002231940014331702800107002E028005B
:1080100057490870544802781100C907C90F3278CF
:10802000D2B252091300DB07DB0F4B40DBB2002B4F
:1080300010D101780A00D2B212091100C907C90F84
:108040003278D2B212091300DB07DB0F4B40DBB2F0
:10805000002B13D043490978002912D13178C9B2D5
:10806000490922000A4002700178327810231A4030
:108070000A43027020003449087002E028003949A0
:1080800008703D480178327892082240914208D029
:108090003178C9B2890822000A4002700078FFF7DF
:1080A000A7FE36480178002903D032490978002913
:1080B0000AD026490A78BB799A4205D0B879087067
:1080C0000878FFF74BFE06E020490978BA7991421B
:1080D00001D129000170F87929490870387A2949B5
:1080E0000870684604702348057026E0264E7879AB
:1080F000C001B97908433080F87924490870387A8A
:1081000023490870022220212248FFF771FD2248EE
:108110003188FEF783FB401E204908606320204918
:1081200008602048056004211F4800F0D1FE684621
:10813000047002E0FFF77EFEFFE768460078002843
:1081400001D0FFF796FEF1BD060C0020FF0B0020CA
:10815000CC000020E00B00200C0C0020FC0B0020C9
:10816000000C0020D0000020D1000020010C0020D5
:10817000050C0020D2000020020C0020040C00207E
:10818000FD0B0020FE0B0020F00B0020CE00002095
:10819000CF0000200004005000C409002804004063
:1081A0002C04004038040040EC0A0020E0B568468A
:1081B00024490CC90CC00839083868462249097896
:1081C00001702249098801710521684601F0DCFB34
:1081D00007BDE0B568461E490CC90CC0083908380F
:1081E00019480078694608700521684601F0CCFB03
:1081F00007BD10B50400FEF7C3FB16490860A07860
:108200008007800F03281BD160780F490870E07841
:10821000002806D0112807D0152808D01A280ED01B
:108220000EE0FFF7D6FF0BE0FFF7C0FF08E0607934
:10823000012803D108480949086001E000E0FFE790
:1082400010BD0000DC9D00080C0C0020F20B00208B
:10825000E49D0008E00B002055AA5AA5C0000020AC
:1082600030B504000F4801680F4A0A4022430260FB
:1082700080208000844212D10C48006806214843C7
:108280000B49FEF7CEFA401C05000A48006840057D
:1082900005D5002D01D06D1EF7E7032000E000207A
:1082A00030BD000000700040FFF9FFFFC800002053
:1082B00040420F00147000400268334B13400B43E0
:1082C000036070470168E02040040840704770B4C4
:1082D0000423446907250E001E40B540AC430D0041
:1082E0002B4015009D402543456170BC704710B47C
:1082F0000422436907200C001440A04018400A40A3
:10830000D04010BC7047F0B41F240F25866A0F00C0
:1083100027402B00BB409E43930E1D400B001C408A
:10832000A54035438562F0BC7047826A4B035B0B06
:10833000134383627047826A4B035B0B9A438262EA
:10834000704730B443690C02A3430C0214400F4D34
:1083500025401D43456130BC704781680C4A0A4086
:108360008021490511438160704781680800C00081
:10837000C00F704781680800C007C00F7047816850
:1083800008004007C00F7047FFFF3FFE00FFFF07D8
:10839000E8FFFF7FF8B584B0040000273800694685
:1083A00008703D0001970297002C01D101203BE1AC
:1083B0003C20205C01282069002803D0206980210E
:1083C00089038842A06D002806D12000FDF748F9F6
:1083D000E7653800542160542068FFF7C6FF002885
:1083E00001D1012000E03800C0B2002812D020687E
:1083F000FFF7B3FF8E4800688E49FEF712FA401C63
:108400000221484302900298002803D00298401E9F
:108410000290F8E72068FFF7A8FF002801D10120AB
:1084200000E03800C0B2002809D0A06D102101433F
:10843000A1650120E16D0143E1656946087020688E
:10844000FFF79DFF03901026A06D3040002800D05C
:10845000E2E00398002800D0DEE0A06D73490140FF
:1084600002200843A0652068FFF784FF002801D19F
:10847000012000E03800C0B2002800D182E0206B6B
:10848000002802D08020400100E038002169002946
:1084900003D521694900490801E080218903A268C8
:1084A0002A43237E9B031343627ED2031A43A37E97
:1084B0005B0313431843E268024311432C20205C02
:1084C00045000D432020205C01280FD1A07E00280C
:1084D00004D1280080256D02054307E0A06D20210E
:1084E0000143A165E06D01210143E165606A002857
:1084F00006D0606AE021490001402943A56A0D4386
:108500002068C0684C49014029432068C160019837
:108510006168890F89070143E06C084301903C20A2
:10852000205C01280DD101986168890F89070143FA
:10853000206C0843616C0143A06C08430121014396
:108540000191206800693D49014001980843216874
:1085500008616068C0210906884213D060688021E4
:10856000C90588420ED0606880210906884209D07A
:1085700033480268334911406268F0239B0313407B
:108580000B430360626B00212068FFF7A0FEA26B23
:108590002D492068FFF79BFE2069002807D120683D
:1085A000806A0F21C94301432068816213E020697A
:1085B0008021890388420ED12068806A0F20C04341
:1085C000E169491E04225143C906C90E8840216E43
:1085D00001432068816200212068FFF788FE616BFB
:1085E000884201D1012000E03800C0B2002807D045
:1085F000E765A06D0221884301210143A16511E0D7
:10860000A06D022188430643A6650120E16D014368
:10861000E1656946087005E0A06D0643A665012086
:10862000694608706846007805B0F0BDFFFEFFFFA0
:10863000C8000020400D03000102DEFF02FCFF1F06
:1086400008270140FFFFC3FF04FFFF07FEB5070037
:108650000C00002069460871002002908026360632
:108660003869B04203D038699E49884200D1FFE79B
:108670005420385C012801D1022031E10125280075
:10868000542178543868FFF77AFE002801D1280079
:1086900000E00020C0B2002800D116E16068022886
:1086A00000D1DEE03869B04203D038698D49884294
:1086B00004D121683868FFF738FE86E0206840035F
:1086C000400B002804D12068800EC006C00E64E074
:1086D00020682840002801D000205EE002202168A8
:1086E0000140002901D0280057E0042221681140F0
:1086F000002952D1082021680140002901D003201F
:108700004BE0102123680B40002B01D0100044E007
:108710002278920601D505203FE02278520601D545
:1087200006203AE02278120601D5072035E02268BB
:10873000D20532D42068800501D509202DE02068BB
:10874000400501D50A2028E02068000501D50B204E
:1087500023E02068C00401D50C201EE020688004BE
:1087600001D50D2019E02068400401D50E2014E049
:108770002068000401D50F200FE02068C00301D558
:1087800008000AE02068800301D5112005E0206878
:10879000400301D5122000E000201F213A6E0F2374
:1087A00065680E002E40B3409A43636819408840C4
:1087B00010433866F86961688908491C884204D307
:1087C000226861683868FFF79EFDA26821683868F2
:1087D000FFF7B7FD206800287DD5434D2800FFF73F
:1087E00071FD00902068414988421AD18021090416
:1087F00000980840002814D1009801432800FFF792
:108800005BFD3B4800683B49FEF70BF8401C0C2120
:1088100048430290029800285DD00298401E0290C2
:10882000F8E72068344988420BD180214904009838
:108830000840002805D1009801432800FFF73CFDBF
:1088400049E020682D49884245D18021C90300981C
:10885000084000283FD1009801432800FFF72CFD75
:1088600039E03869B04203D038691E49884203D1E3
:1088700021683868FFF75FFD206800282BD51A4D66
:108880002800FFF71FFD009020681849884206D194
:1088900000981B4901402800FFF70EFD1BE02068EF
:1088A0001549884206D10098164901402800FFF773
:1088B00003FD10E02068114988420CD1009812494C
:1088C00001402800FFF7F8FC05E0B86D20210143C6
:1088D000B9656846057100205421785468460079CE
:1088E000FEBD00000400008008270140001000B019
:1088F000C8000020400D0300004000B8002000B474
:10890000FFFF7FFFFFFFFFFEFFFFBFFF10B504006B
:10891000002C01D101200EE02079002804D1002094
:1089200060712000FCF7C8FE022020710020206149
:1089300001202071002010BDF7B584B0040000278D
:10894000380069460871002C02D00598002801D132
:108950000120E9E0059800690128059800680428CD
:108960006079012801D10220DEE001252800607134
:10897000022020710598006804286CD1FEF700F8E9
:1089800002900698002824D1802636022068406B89
:108990003040002818D0FDF7F3FF0299401A022852
:1089A00001D3280000E03800C0B20028ECD02068D5
:1089B000406B0640002EE7D0206908210143216169
:1089C000032020710320AFE00598806921680864C6
:1089D0001FE02068406B002817D5FDF7D1FF0299F2
:1089E000401A022801D3280000E03800C0B2002855
:1089F000EFD02068406B0028EBD5206908210143A7
:108A000021610320207103208EE005988069216890
:108A1000486410202168896C454A069B06001E4068
:108A2000B2409143059AD269069B06001E40B240AF
:108A30000A4321688A642168C96CFF22069B0600EC
:108A40001E40B2409143059A126A069B184082402C
:108A50000A432068C26405980069012814D120687F
:108A6000806B10211F22069B0E001E40B2409043D7
:108A7000059A52690392039A069B19408A40024361
:108A800000920098216888632068C06B102307213A
:108A9000069A1E001640B140884305990968059A58
:108AA00092680A430599C9681143069A1E00164048
:108AB0000A00B2400243009200982268D063206806
:108AC00006688020C001844606981A00024060466D
:108AD000904086432068066020680068154A9446E6
:108AE000069A1E0016406246B2409043059A5268AC
:108AF000844606981E0006401000B040664630438B
:108B0000060020680660206800680090C020844647
:108B10000698034060469840009B834320680360AA
:108B2000257167716846007907B0F0BD000000004C
:108B3000FF030000FE0F000010B50400002C01D15F
:108B4000012065E04120205C002805D10020402163
:108B500060542000FCF7DCFD242041216054206893
:108B60000068012188432168086060682949014044
:108B70002068016128482168896801402268916065
:108B8000E168012906D1A168802212020A43216806
:108B90008A6005E0A168842212020A4321688A6083
:108BA000E168022907D121684968802212010A433D
:108BB00021684A6005E021684968184A0A4021682E
:108BC0004A6021684968164A0A4321684A60216858
:108BD000C96808402168C860206961690143A069CB
:108BE000000208432168C860E069216A01432068E7
:108BF00001602068006801210143206801600020B5
:108C0000606420214122A15420634221605400204D
:108C100010BD0000FFFFFFF0FF7FFFFFFFF7FFFF2A
:108C20000080000210B502004120105C20282AD1EB
:108C30004020105C012801D1022025E00120030022
:108C40004024135524234124135513681B68012421
:108C5000A3431468236013681B68244C1C401368EA
:108C60001C6013681B680B431468236013681B683F
:108C700018431368186020204123D054002040235B
:108C8000D054002000E0022010BD10B502004120A9
:108C9000105C202827D14020105C012801D102203F
:108CA00022E0012420004023D05424204123D0542A
:108CB00010680068012398431368186010680368FF
:108CC0000B4818400B0203431068036010680068EB
:108CD00004431068046020204124105500204024E3
:108CE0001055002000E0022010BD0000FFEFFFFF44
:108CF000FFF0FFFFF8B50400002C01D101207EE059
:108D0000606A002807D1606882214900884205D046
:108D10000020E06102E00020206160610025A56282
:108D20005D20205C002805D128005C2160542000D3
:108D3000FCF734FD022001005D22A154216809687E
:108D40004022914322681160E1682D4A914201D38B
:108D5000290001E080214901F0221201E3689342D9
:108D600005D0E368E026F600B34200D0A5620123F7
:108D70006768822676003E40B446A66884273F0294
:108D800037406646374326693040384366691E409F
:108D90000643A0698027BF0038403043277F38262C
:108DA0003E4006432020205C802738403043A66A9E
:108DB0008027BF013E40064320680660A069060C7C
:108DC000042006402420205C1027384030433426FD
:108DD000A65D08273E400643E068024032438020FB
:108DE000400108401043226850602068C069054A6D
:108DF00002402068C26125665D2023540020F2BD38
:108E000001070000FFF7FFFF10B50400002C01D19F
:108E100001202AE03D20205C002805D100203C21D3
:108E200060542000FCF7ECFC02203D216054211D21
:108E3000206800F021FA0120482160543E2160544E
:108E40003F216054402160544121605442216054CC
:108E500043216054442160544521605446216054AC
:108E6000472160543D216054002010BD10B504001E
:108E7000002C01D101202AE03D20205C002805D1F2
:108E800000203C216054200000F0A6FD02203D217E
:108E90006054211D206800F0EFF901204821605442
:108EA0003E2160543F216054402160544121605470
:108EB0004221605443216054442160544521605450
:108EC00046216054472160543D216054002010BD6C
:108ED00070B504000D00002D02D13E20205C15E08D
:108EE000042D02D13F20205C10E0082D02D140204B
:108EF000205C0BE00C2D02D14120205C06E0102DFF
:108F000002D14220205C01E04320205CC0B2012855
:108F100001D001206BE0002D03D102203E216054DE
:108F20001AE0042D03D102203F21605414E0082DE3
:108F300003D10220402160540EE00C2D03D1022009
:108F40004121605408E0102D03D1022042216054D9
:108F500002E002204321605401222900206800F031
:108F60007FFB2348216881420BD02168214A91422E
:108F700007D02168204A914203D021681F4A9142BC
:108F800001D1012100E00021C9B2002906D02168E9
:108F9000496C802212020A4321684A642168814296
:108FA0000CD020688021C905884207D02068144968
:108FB000884203D020680F49884211D12068806818
:108FC000104901400E00062E10D08020400286423B
:108FD0000CD020680068012101432068016005E091
:108FE000206800680121014320680160002070BDF5
:108FF000002C014000400140004401400048014075
:109000000004004007000100F4B505000C00002634
:1090100037003C20285C012801D10220A5E0012076
:109020003C216854009900290AD004291FD008293E
:1090300036D00C294BD0102962D0142977D08FE07C
:109040002100286800F063F928688069082101433D
:1090500028688161286880690421884329688861BB
:1090600028688069216901432868816179E02100CD
:10907000286800F08AF92868806980210901014385
:1090800028688161286880693849014028688161C1
:10909000286880692169090201432868816160E0CC
:1090A0002100286800F0ABF92868C0690821014355
:1090B0002868C1612868C069042188432968C8619B
:1090C0002868C069216901432868C16149E021001D
:1090D000286800F0D9F92868C06980210901014396
:1090E0002868C1612868C069204901402868C161B9
:1090F0002868C0692169090201432868C16130E01C
:109100002100286800F0EEF92868406D082101432D
:10911000286841652868406D0421884329684865AE
:109120002868406D216901432868416519E02100E4
:10913000286800F005FA2868406D80210901014384
:10914000286841652868406D0849014028684165E4
:109150002868406D2169090201432868416500E0E3
:1091600007003C202E543800C0B2F2BDFFFBFFFFC9
:10917000FEB504000D000027684607703C20205C07
:10918000012801D1022072E001263C202654022051
:109190003D216054206880683549014035480840C9
:1091A00001900198216888602868002852D0102812
:1091B00050D020284ED030284CD0402840D05028C5
:1091C0002AD0602832D0702809D0802149018842F5
:1091D00004D080218901884210D040E041E0EB6852
:1091E0006A68A968206800F01FFA20688068772103
:1091F0000143019101982168886032E0EB686A6858
:10920000A968206800F010FA206880688021C901F0
:1092100001432068816024E0EA686968206800F002
:10922000C3F95021206800F0F3F91AE0EA68696890
:10923000206800F0D1F96021206800F0E9F910E021
:10924000EA686968206800F0AFF94021206800F002
:10925000DFF906E02968206800F0DAF901E06846E5
:1092600006703D2026543C20275468460078FEBDF9
:1092700088FFCEFFFF00FFFF10B502687C4CA042C4
:1092800006D08023DB05984202D07A4B984204D165
:1092900070239A4313004A681A43A04212D08023D5
:1092A000DB0598420ED0734B98420BD0724B98421C
:1092B00008D0724B984205D0714B984202D09D4B1A
:1092C000984203D16F4B1340CA681A4380239A43D4
:1092D0004B69134303608A68C2620A688262A042D3
:1092E00008D0664A904205D0654A904202D0914A21
:1092F000904201D10A69026301224261046922405D
:10930000002A03D002690124A243026110BD70B596
:10931000056A026A01239A43026244688269704BBB
:109320001340032293430A681A4302239D438B6828
:109330002B434F4DA84208D0504EB04205D0504E5E
:10934000B04202D07B4EB04206D10826B3431E0085
:10935000CB6833430426B343A84208D0474DA84204
:1093600005D0474DA84202D0724DA84207D1724D98
:109370002540884C2C404D6925438C692C43446022
:1093800082614D684563036270BD70B5056A026A0B
:1093900010239A43026244688369684A1A40394B31
:1093A00013400A6812021A4320239D438B681B0155
:1093B0002B432F4DA84207D18026B3431E00CB6814
:1093C0001B0133434026B343A84208D02B4DA8428B
:1093D00005D02B4DA84202D0564DA84209D16E4D62
:1093E00025406E4C2C404D69AD0025438C69A4008E
:1093F0002C43446082614D688563036270BDF0B5A3
:10940000036A026A4C4C144004624568C269344CD9
:109410001440032294430A6822435E4C1C408B682C
:109420001B022343124EB04206D15C4C1C40CB6859
:109430001F022743584B3B40B04208D00F4CA0427C
:1094400005D00F4CA04202D03A4CA04209D1544C56
:109450002C405E4D25404C6924012C438D692D0123
:1094600025434560C2614C68C4630362F0BD0000DF
:10947000002C01400004004000200040004001405A
:1094800000440140FFFCFFFF30B5046A026A444B10
:10949000134003624568C269284B1340414A1A4091
:1094A0000B681B021343494A22408C68240314436F
:1094B000474A904208D0474A904205D0504A9042CD
:1094C00002D01C4A904204D1564A2A404D69AD014F
:1094D00015434560C3614A680264046230BD000000
:1094E0008FFFFEFF70B5046A464E026A3240026288
:1094F0004568426D444B13400A681A43434B23406E
:109500008C6824041C43324B984208D0314B98425B
:1095100005D03B4B984202D0494B984203D12E4094
:109520004B691D023543456042654B6883650462A3
:1095300070BD000000480140FFFEFFFFFF8FFFFEEF
:1095400030B5046A026A3F4B134003624568426DBE
:109550003D4B13400A6812021A433C4B23408C686F
:1095600024051C431A4B984208D01A4B984205D048
:10957000234B984202D0324B984204D1344B2B40BB
:109580004D69AD021D43456042654B68C365046289
:1095900030BD0000FFFDFFFFFFFBFFFFFFF7FFFFF8
:1095A000FFEFFFFFFFFCFFFF30B4056A036A0124F1
:1095B000A34303628369F024A34314011C430A23D9
:1095C0009D430D438461056230BC7047FFDFFFFFA0
:1095D000002C01400040014030B4056A036A1024A9
:1095E000A343036283691C4C1C4013032343A02440
:1095F000A5430C012C438361046230BC704700001A
:1096000000440140FFFFFEFF8FFFFEFFFFFFFDFF55
:109610008268104B13400B4307221A438260704745
:1096200000000000FFBFFFFF30B484680B4D2540F1
:109630000D4315431C022C43846030BC704700006E
:1096400000480140FFFFEFFFFF8FFFFEFFFFDFFF3E
:10965000FFFFFBFF8FFFCFFFFF0FFFFFFF00FFFFAD
:1096600070B41F2401230D002540AB40056A9D43C3
:109670000562056A0E0034401600A6402E430662BD
:1096800070BC704770B502003C20105C012801D10D
:10969000022034E001253C20155402203D23D05403
:1096A0001068406813689C683D4E1368B34203D14C
:1096B0003C4B034048681843702398430B680343AE
:1096C000106843601068B0420CD010688026F60520
:1096D000B04207D01068344EB04203D01068334E09
:1096E000B04206D18020844320008C680443106877
:1096F00084603D20155400203C255055002070BD4D
:1097000030B50200002003003C24145D012C01D17F
:10971000022041E001243C255455FF24A343CC689A
:109720001C43234B23408C681C43224B23404C6832
:109730001C43214B23400C681C43204B23400C69E5
:109740001C43164B23404C691C431D4B23400C6BA0
:109750001C431C4B23408C6924041C431A4D254098
:10976000CB692B4314680E4DAC4210D10D4C1C40FC
:109770008B6A1B052343154C1C400B6A2343144C76
:109780001C404B6A2343134C1C40CB6A2343146890
:1097900063643C241055002030BD0000FFDFFFFF54
:1097A000002C0140FFFF0FFF00040040004001407B
:1097B000FFFCFFFFFFFBFFFFFFF7FFFFFFEFFFFFD8
:1097C000FFBFFFFFFFFFF0FFFFFFFFEFFFFFFFFE09
:1097D000FFFFFFFDFFFFFFDF10B501008420085CE5
:1097E000012801D1022019E001208422885424207C
:1097F00088228850086800680A68126801239A4322
:109800000B681A60314A0240002048660B681A60F3
:10981000202388240B518423C854002010BD70B528
:1098200005000C008420285C012801D1022020E0E2
:109830000120842168542420882168502868066803
:1098400028680068012188432968086028688068C2
:10985000C000C008204329688860280000F03AF85A
:1098600028680660202088216850002084216854E0
:10987000002070BD70B505000C008420285C012814
:1098800001D1022020E00120842168542420882175
:10989000685028680668286800680121884329689C
:1098A0000860286880680A4901402143286881606F
:1098B000280000F00FF828680660202088216850F2
:1098C000002084216854002070BD0000FFFFFFDFEE
:1098D000FFFFFFF1F8B50400606E002805D10120FC
:1098E0006A216052682160522CE0082001006A461B
:1098F00091706946487020688068400E4007400FAC
:109900006946087020688068400F05000E4E0F4FB2
:10991000684640782900C9B2795C48432900C9B239
:10992000715CFCF77BFF6A2160526846807869466B
:109930000978795C484369460978715CFCF76EFFE9
:1099400068216052F1BD0000FC9D0008F49D0008F4
:1099500070B50400FDF714F8050026000020C04390
:10996000864202D0074800783618FDF709F8401BF8
:10997000B04201D2012000E00020C0B20028F4D1A2
:1099800070BD00BFD400002038B505000C000E4AA1
:10999000210089B2280000F06DF8C0B2002801D083
:1099A000012000E00020C0B200280CD001220821D4
:1099B0000648FDF708F9022005490A780300134319
:1099C0000B700449088031BDD8000020000400500D
:1099D0000B0C0020FA0B00207047FEE770B5020068
:1099E00023480300002425000E00ADB2B6B2B542F4
:1099F00005D22500ADB2555D5B19641CF3E75840F4
:109A000080B270BD30B58122D2008123DB00C35A01
:109A100093422BDA0B00DBB27E2B03D00B00DBB2C0
:109A20007D2B1AD18123DB00C35A5C1C8125ED00FC
:109A300044537D249BB2C4548123DB00C35A934218
:109A400014DA8122D200825A531C8124E400035389
:109A500020234B4092B2835408E08122D200825AE4
:109A6000531C8124E400035392B2815430BD0000A2
:109A7000FFFF0000F1B582B00F0016000298002829
:109A800001D0002E01D1002050E0380080B2002823
:109A900005D0380080B280218900884201DB002097
:109AA00044E0002528008121C9007052390089B2A4
:109AB0000298FFF793FF694608808120C000305A62
:109AC000411C8122D200B1527E2480B2345428003D
:109AD000390080B289B2884208D20298290089B23E
